:020000040800F2
:10000000F80A0020F901000869160008C10E00086E
:1000100000000000000000000000000000000000E0
:10002000000000000000000000000000CB220008DB
:100030000000000000000000B51F0008CD220008ED
:100040000B0200080B0200080B0200080B0200085C
:100050000B0200080B0200080B020008490D000803
:10006000000000000B0200080B0200080000000066
:100070003D0800080B0200080B0200080000000009
:10008000252400080B020008000000000B020008F5
:10009000000000000B0200080B0200080B02000821
:1000A000000000000B020008000000000B02000826
:1000B000CD26000800000000000000000000000045
:1000C0000448854600F070FB004800470908000816
:1000D000C046C046F80A0020F7B5A4B00646174649
:1000E000002504A80390FF22802100F0CFF8F0093A
:1000F000C00102907006400E01900198C01980283E
:1001000001D927B0F0BD02F019FD002800D0F8E7B2
:10011000019A039988183A46259900F0A5F86420B9
:1001200000F02EFE334840690121084331494861FF
:1001300000BFEFF31080044672B612E0A80004A9D5
:100140000958029801600298001D0290681CC5B20F
:100150001F2D06D1274840690121C90408432549BC
:100160004861202DEAD3642000F00AFE214840694E
:10017000400840001F49486100BF84F3108800BF59
:1001800002F040FC002800D0BBE700BFB9E7F3B5A0
:1001900081B00024019E029F642000F0F1FD15480B
:1001A0004069012108431349486100BFEFF3108003
:1001B000054672B60EE0386830603F1D361D601C83
:1001C000C4B21F2C06D10B4840690121C904084361
:1001D00008494861202CEED3642000F0D1FD054889
:1001E0004069400840000349486100BF85F310881A
:1001F00000BFFEBD0020024004488047044800477D
:10020000FEE7FEE7FEE7FEE7FEE7FEE7B9230008AC
:10021000C100000830B50B46014600202022012411
:1002200009E00D46D5409D4205D31D469540491B2A
:100230002546954040191546521E002DF1DC30BD73
:1002400070B500242546002801DA01244042002927
:1002500001DA01254942FFF7DDFFAC4200D0404200
:10026000002C00D0494270BD03460B439B0703D0CE
:1002700009E008C9121F08C0042AFAD203E00B786B
:100280000370401C491C521EF9D27047D2B201E0E3
:100290000270401C491EFBD270470022F6E710B5E1
:1002A00013460A4604461946FFF7F0FF204610BDE4
:1002B000F0B507460846584087B0C00F0490480084
:1002C0000E46590040084908BC1A884105D23846F4
:1002D00031461E4617460B4602465800400810435A
:1002E0004DD0300D039040055900400D490D05904B
:1002F000401A0290402873DA18030121000B090507
:100300000843019004980092002806D01146019AF3
:1003100049420020904100910190029840210A1A20
:100320000199009800F0ACF905460C466B4607CBE6
:1003300000F0C7F9C0197141039A0E0D0023D717B9
:1003400056401A467A40164344D0049A002A2DD0CB
:10035000029A012A039A15DC1205C01A914101265E
:100360003605001C7141D20F059ED2070093019201
:1003700002962A46234600F0C4F907B0F0BD38467D
:100380003146FAE71605234A0F46B218C01AB7419C
:1003900001210905001C4F4100187F411146181822
:1003A0007941E20F10436D19644113E0E2076D08D3
:1003B00015436408C2071443039A01261205C01AA4
:1003C00091413605001C7141CE0740083043490871
:1003D000C01851412A46234600F086F9CDE7FFE7D1
:1003E000049801224000C117121A00238B4104987F
:1003F0003146C417381AA141EEE730B40124E407AE
:10040000634030BC54E730B40124E407614030BCA1
:100410004EE700000000E0FFF0B51FB488B00B9974
:100420000998002448400999C00F490049080991DA
:10043000C0070B990090490049080B910999089849
:10044000A64608431CD00B990A98084318D009986F
:1004500001244000420D4800410D09982405000385
:10046000000B204309900B980003000B20430B90D6
:1004700050181C494018002201901446104605E00F
:10048000002001460DB0F0BD032801DA034600E06C
:1004900003239C46C11A0AAE0AE05F0008ADED5B7B
:1004A0004F00F75B7D430027AA187C41491C5B1E67
:1004B0006145F2DD410004AB5A522104120C0A439B
:1004C000240C401C0828DFDB01980290009970463C
:1004D00001910090059B049A0799069800F011F984
:1004E000D0E700000DFCFFFFF0B50C465C4085B086
:1004F000E40FE40703944C00002664085900944676
:10050000490802460296224321D062460A431ED081
:100510006200570D4A000E032303550D01240246C5
:100520002C492405781B1B0B360B4018234326430C
:10053000614600901C46501AB44103D30098401CF9
:10054000009002E0921800985B41002803DA002036
:10055000014605B0F0BD0020012109050746864689
:1005600011E064461D46141BB54106D36546521B77
:10057000B341744607430C43A646CD0740084908DB
:10058000284392185B4105460D43EAD110461843B3
:1005900013D06046194650407140084306D060466B
:1005A000101AB34106D20122002306E000220123E3
:1005B000DB0702E00122D243531000987446010584
:1005C000381C6141029C039D0019694100F08CF8C0
:1005D000BFE70000FD0300000EB5C217C10F504079
:1005E000CA0740180021054B0293019200910A4668
:1005F0000B4600F086F803B000BD00003304000095
:100600000EB505490291002100910A460B46019161
:1006100000F077F803B000BD330400004A0009037E
:100620000123090B1B051943094B10B5520D9A42C2
:1006300001DA002010BD064B34339A4203DC9A1ACB
:1006400000F02EF810BD03495118884010BD00007D
:10065000FF030000CDFBFFFF10B5002904DB0124E0
:10066000E40740428C412146002B04DB1C46012359
:10067000DB075242A341994200D1904210BD0000D5
:1006800010B5202A04DB0146203A9140002010BD1D
:10069000914020239C1A0346E3401943904010BD2B
:1006A00010B5202A04DB0846203AD040002110BDB6
:1006B0000B46D340D0402024A21A9140084319464B
:1006C00010BD10B5202A06DBCB170846203A104192
:1006D000C1170B4306E00B461341D0402024A21A59
:1006E00091400843194610BD10B5002B08DA0024CC
:1006F000401C614192185B411A4301D140084000FF
:1007000010BDF0B51FB482B005460C0003D00846FA
:1007100002F032F802E002F02FF82030024600909A
:1007200021462846FFF7ACFF049B059A04460F4676
:1007300018431143084314D0184610431BD00098A7
:1007400040210A1A18460599FFF7AAFF05460E46EA
:10075000009A05990498FFF793FF084305D00120FC
:1007600004E02046394607B0F0BD0020C11705431C
:100770000E432C43374300990E986305401A7905C0
:10078000E40A00220C43FD0A0A3002D5002001468B
:10079000E9E70105101969410C9C0D9D001969419B
:1007A000FFF7A2FFDFE70000064C0125064E05E03B
:1007B000E36807CC2B430C3C98471034B442F7D382
:1007C000FFF782FCD4370008F437000830B58C18E6
:1007D0000278401C13071B0F01D10378401C12093B
:1007E00006D10278401C03E005780D70401C491CBE
:1007F0005B1EF9D101E00B70491C521EFBD1A142D6
:10080000E6D3002030BD000070B50125ED060024C0
:1008100006E0A0002858A100064A5050601CC4B24F
:10082000302CF6DB012040070349886002F0A6FB6C
:10083000002070BD0000002000ED00E010B500BFFA
:1008400007480068042108408008002806D000BF3F
:1008500004200349086000BF00F0DCF810BD000070
:100860000024014010B500BF012000054849096B74
:100870000143474A116300BF00BF1146096B814322
:10088000116300BF00BF012000F02AFD03220121F7
:100890000520000700F0F5FC0120000500F0C2FB78
:1008A0003C4800F0A2FB00280AD100BF3A49096881
:1008B0000322920591430143374A116000BF00BFF4
:1008C0000120000733490969090109090143314A37
:1008D000116100BF0021104600F08FFB00212D4860
:1008E00000F08BFB00202B49C96801229203914341
:1008F0000143284AD16000BF052011464969C90853
:10090000C9000143516100BF00201146C968372268
:100910009201914301431F4AD16000BF00BF1146BD
:10092000C9685214914301431A4AD16000BF00BF05
:100930001146C968890889000143D16000BF90143D
:100940001146C968024691430143124AD16000BF73
:1009500000201146C96801221204914301430D4A47
:10096000D16000BF01200D490140916200BF00BF6E
:1009700010464068042108431146486000BF00212A
:100980000C2000F07DFE0C2000F070FE10BD000079
:10099000001002400024014008270140FF1B000016
:1009A00008B500200090194800F01FFB002823D153
:1009B00000BF164880681649084089074018134947
:1009C000886000BF00BF00BF10488068C00F0028CB
:1009D000F9D12020009002E00098401E009000987D
:1009E0000028F9D100BF0948806809490840401C27
:1009F0000649886000BF00BF00BF04488068044902
:100A00000840001D0149886000BF08BD0024014066
:100A1000EAFFFF7F70B586B000BF5048006C80B21F
:100A20004F490880084600887D214901884204DC3E
:100A30004B480088491088420CDA01204949087067
:100A400000214948494A11605060494A116050608C
:100A500006B070BD00240FE060004649085A4049C6
:100A60000988884206DA2046FFF7CAFD3F4A10602F
:100A7000516003E0601CC4B2292CEDD300BF0022FA
:100A80003D4B3A4908684968FFF7E6FD04D200206B
:100A90003949364A106051600022384B33490868A2
:100AA0004968FFF7B9FC314A10605160002C2ADD1B
:100AB0006100304A525A611E49002E4B595A501A51
:100AC000FFF78AFD05460E4661002A4A515A244A1C
:100AD0001288501AFFF780FD2A4633460191009094
:100AE000FFF702FD0022254B03910290FFF794FCD3
:100AF000059104901D48026843680498FFF7D8FBED
:100B00001A4A1060516017480078002809D0174928
:100B100008684968164A1060516000201149087041
:100B200019E0174A174B114908684968FFF774FC28
:100B300005460E46124A5242134B0D490868496851
:100B4000FFF76AFC2A46334605910490FFF7B0FB95
:100B5000074A1060516000BF7AE70000002401409E
:100B60005401002056010020E0FFEF40400100202A
:100B70004801002066350008000044400000244081
:100B80009A9999999999A93F6666EE3FF7B50746F4
:100B900015460421052000F0D5F90021012000F0C0
:100BA000FBF980210A2000F011FA002405E0395DEC
:100BB000092000F0F1F9601CC4B201988442F6DB10
:100BC0000321012000F0E8F9FF2400BF052000F018
:100BD000C9F90646601EC4B2002C03D00420304080
:100BE0000028F3D0222000F0BDF92870212000F069
:100BF000B9F96870FEBD000010B500F0E5FE0B49C4
:100C00000870084600780A49097888420DD00748DC
:100C100000780749087005480078AA2805D10523FF
:100C2000044A0121022000F06DF810BD9E01002051
:100C30009D010020A1060020F8B504460E4631466D
:100C4000204602F0B1F9002801D00020F8BD20783C
:100C5000882801D00020F9E76078032804D0042810
:100C600033D0052845D137E0A078102817D10025CA
:100C700009E00A20684321494018007A002800D181
:100C800003E0681CC5B20A2DF3DB00BF0A206843ED
:100C9000C3B21A4A1121032000F034F800BFA07833
:100CA000122811DBA0781C280EDAA17812390A224A
:100CB0005143124A88180922211DFFF7D5FAA1785D
:100CC0001239C8B200F078F814E0A078022802D1F6
:100CD00000200B4908600DE0A078012808D16420AD
:100CE000009001236A460221052000F00BF800BFA6
:100CF00000E000BF00BF00BFA8E70000DC0000204C
:100D00007C010020FFB5C1B005460E461C46882177
:100D10006846017145718671C471224602A84399E3
:100D2000FFF7A2FA211D01A802F03EF9074601AA29
:100D3000201D17543912601D1154A01DC1B201A805
:100D400002F014FA45B0F0BD10B5102000F00EFA14
:100D5000002804D0102000F073F902F001F80120FF
:100D6000000300F003FA002806D00120000300F081
:100D700067F902200149888110BD0000340300207A
:100D800070B5044602F02CF9051905E002F028F9C7
:100D9000A84201D3002070BD054800690121090463
:100DA00008400028F2D10348014908610120F2E718
:100DB00000200240118000007FB5054624480068ED
:100DC00001214902884223D9002021490860214895
:100DD00001F02CFE1F48803001F028FE1E4801F073
:100DE00025FE1D48803001F021FE00240DE00A2080
:100DF00060431A494018007A002803D02046FFF7C4
:100E0000DBFF00E003E0601CC4B20A2CEFDB00BF94
:100E1000FF2210216846FFF739FA01216846017068
:100E200045700A2068430D4A81180A2200A8023042
:100E3000FFF71AFA06490968064A88181022694617
:100E4000FFF74AF9024800681030014908607FBD89
:100E5000CC00002000E0000800E10008DC000020D9
:100E600070B500201349086000241CE012482018C7
:100E70000068401C002800D119E00F4820180078B5
:100E800001280DD10C48201845780B4AA218911C56
:100E90000A226A43094BD0180A22FFF7E5F900BF7E
:100EA0002046103084B2012040028442DEDB00BFC5
:100EB00070BD0000CC00002000E00008DC00002035
:100EC00000BFFEE700BF1948006A01210843174927
:100ED000086200BF00BF00BF1448006A022108403A
:100EE00040080028F7D000BF11481249086000BF31
:100EF00000BF1148086000BF0320486000BF0F48D2
:100F0000886000BF00BF00BF0A48C0688007800F2C
:100F1000002801D1012000E000200028F3D000BF0C
:100F200007480449086000BF7047000040100240B5
:100F3000CCCC00000030004055550000B80B00003C
:100F4000AAAA000070B505460C460026284600F007
:100F500009F806463046A0430146284600F01CF832
:100F600070BD000070B504460025A006400E044682
:100F700080340221074800F07EF9204601F070F924
:100F8000002001F06DF905460221024800F077F9D2
:100F9000284670BD0004005070B505460C4602217D
:100FA000094800F06CF9A806450E0221064800F039
:100FB00062F9284601F054F9204601F051F9022166
:100FC000014800F05CF970BD0004005070B50546A2
:100FD0000C4600262846FFF7C5FF0646304620434C
:100FE00001462846FFF7D8FF70BD01468868C00754
:100FF000C00F0122504050407047C26818239A43E6
:101000000A43C2607047000008B50549C96B014337
:10101000034AD1631146C96B0140009100BF08BD6E
:101020000010024008B5054909680143034A1160F0
:10103000114609680140009100BF08BD4010024000
:101040000149C86070470000001802400249496821
:101050008143014A51607047801802400249096883
:101060008143014A11607047801802400249496873
:101070000143014A516070478018024002494968A3
:101080000143014A51607047001802400249096853
:101090000143014A11607047801802400249096803
:1010A0000143014A116070470018024070B50446C0
:1010B0000025207900284ED02068002851D0607982
:1010C000002804D0012809D0022815D10DE020689D
:1010D000FFF7BCFF2068FFF7D9FF0FE02068FFF79C
:1010E000BDFF2068FFF7C2FF08E02068FFF7CEFFD2
:1010F0002068FFF7BBFF01E0012500BF00BFA0791A
:1011000000282ED0A079012804D002280DD0032871
:101110001DD115E02068144949688143124A516085
:1011200000BF2068FFF7BAFF14E020680E49096885
:1011300081430D4A116000BF2068FFF79FFF09E05F
:101140002068FFF7ABFF2068FFF798FF02E002205E
:10115000054300BF05E02068FFF780FF2068FFF728
:1011600075FF284670BD0000001802400146024885
:10117000C06808407047000000180240F0B5024601
:101180000B46002661E00124B44019682140002983
:101190005AD0586814680D464D436F00ED19AC43A2
:1011A0000D464D4345432C43146000BF5868012849
:1011B00002D0586802280DD1986894680D464D43B6
:1011C0006F00ED19AC430D464D4345432C439460ED
:1011D00000BF00BF1869D4680D464D436F00ED197C
:1011E000AC430D464D4345432C43D46000BF586883
:1011F000022829D1FF2911D85869146A0D464D4398
:101200004D434D432F017D1BAC430D464D434D4394
:101210004D4345432C43146200BF15E05F69080A43
:1012200040430C0A60430C0A60430401241A506ACC
:10123000A0430C0A64430D0A6C430D0A6C437C43C3
:101240002043506200BF00BF761C1868F0400028A1
:1012500099D15868012802D05868022809D1DC6861
:10126000186855688543074667433D43556000BF8E
:1012700000BF0120F0BD81627047816170478161CC
:10128000704730B503680C464C4365006419A343AE
:101290000C464C4354432343036030BD10B54368B0
:1012A0008B430C4654432343436010BD30B5C368A1
:1012B0000C464C4365006419A3430C464C4354430D
:1012C0002343C36030BD30B583680C464C43650092
:1012D0006419A3430C464C4354432343836030BDFD
:1012E00008B50549496B0143034A51631146496BEF
:1012F0000140009100BF08BD0010024070B50446D7
:101300007D25ED0029462046FEF784FF401E044956
:101310004861002088610520086100BF70BD0000A1
:1013200000E000E002488068382108407047000073
:101330000010024010B5044600F068FE20602068EE
:1013400000F03AFE6060606800F04CFEA06010BDE6
:101350000149086070470000C000002001680122B8
:10136000114301607047000010B5024613681F4822
:10137000824202D01E48824205D118467024A04302
:101380004C6820430346194882420BD018488242D9
:1013900008D01848824205D01748824202D0174828
:1013A000824206D1184603242402A043CC6820437D
:1013B000034613608868D06200BF0888906200BF4F
:1013C0000A48824205D00C48824202D00B48824231
:1013D00003D1087C106300BF00BF00BF5069012427
:1013E0002043506100BF012010BD0000002C0140CF
:1013F000000400400020004000440140004801403B
:10140000F8B506460C4615460027012C0AD0102CCC
:101410000ED0E01FF938002810D00F210902401A21
:1014200018D111E02946304600F080F9074612E055
:101430002946304600F0CAF907460CE029463046F6
:1014400000F022FA074606E02946304600F076FA18
:10145000074600E000BF00BF3846F8BD8163704713
:101460000021016041608160C16001614161816171
:10147000C1617047FEB505460C4600270026284688
:1014800000F038F8002831D1E1686068084321692C
:101490000843E968164A11400843E8606869012179
:1014A000C9028843A16908436861A06829690122CB
:1014B000520391430143296100BF606969690322B6
:1014C000120291430143696100BF6846FFF732FF92
:1014D000029E002E0AD02068002807D0012731463E
:1014E00028462368A26900F00CF800BF3846FEBD0C
:1014F000F3E9FFFF0146C868012252031040400B88
:101500007047FFB583B00C461D460121C9020598FE
:10151000884247D16900192262431046FEF77AFEDD
:1015200006466421FEF776FE070169001922624330
:101530001046FEF76FFE0646690019226243104608
:10154000FEF768FE64210190FEF764FE64214843C3
:10155000301AC00032300290FEF75CFEF8210840DD
:1015600040003F186900192262431046FEF752FE00
:1015700006466900192262431046FEF74BFE6421BD
:101580000190FEF747FE64214843301AC000323014
:101590000290FEF73FFE4007400F381881B20398D3
:1015A000816045E0A900192262431046FEF732FE31
:1015B00006466421FEF72EFE0701A90019226243A8
:1015C0001046FEF727FE0646A90019226243104680
:1015D000FEF720FE64210190FEF71CFE64214843C3
:1015E000301A000132300290FEF714FEF02108405C
:1015F0003F18A900192262431046FEF70BFE06466B
:10160000A900192262431046FEF704FE64210190EE
:10161000FEF700FE64214843301A00013230029088
:10162000FEF7F8FD0007000F381881B203988160BB
:1016300007B0F0BD08B501460A4A1269009200BF22
:101640000846421C002A00D0401C07E0054A1269E7
:1016500001231B041A40002A00D0401E0028F5D1A7
:1016600008BD000000E000E070470000C206D20E96
:1016700001219140014A11607047000000E100E043
:1016800010B5002819DA1A4A03071B0F083B9B08FC
:101690009B00D2588307DC0EFF23A3409A438B079D
:1016A0001B0E8407E40EA3401A43114B0407240FBA
:1016B000083CA408A4001A5118E00E4A03231B0298
:1016C000D21883089B00D2588307DC0EFF23A34067
:1016D0009A438B071B0E8407E40EA3401A43054B65
:1016E000032424021B198408A4001A5110BD000011
:1016F0001CED00E000E100E000BF00BF00BFBFF351
:101700004F8F00BF00BF00BF06480749C86000BF39
:1017100000BF00BFBFF34F8F00BF00BF00BF00BFBF
:1017200000BFFDE70400FA0500ED00E070B50246D9
:10173000106A400840001062136A55689469A40852
:10174000A40020467026B0430E6830430446184675
:101750000226B0430E6930430346580840004E68E5
:10176000304303461648824205D01648824202D0D2
:10177000154882421CD118460826B0434E69B6006F
:101780003043034618460426B0438E68B600304303
:1017900003462846FF260136B0438E69304305468E
:1017A000284601267602B043CE69760030430546CE
:1017B00055609461C868506300BF1362012070BD1A
:1017C000002C01400044014000480140F8B50446A7
:1017D0000D46206A102188432062266A60680090C6
:1017E000A76903210902384688430746384607217E
:1017F0000903884329680902084307463046202127
:101800008843296909010843064630461021884368
:1018100069680901084306461848844205D01848FB
:10182000844202D0174884421DD13046802188432B
:101830006969890108430646304640218843A96802
:101840008901084306460121890200988843A96955
:101850008900084300900121C90200988843E96982
:10186000C9000843009000986060A7612046E968BD
:10187000FFF7F4FD26620120F8BD0000002C0140B6
:10188000004401400048014070B50246106AFF263E
:101890000136B0431062136A5568D469A408A400E5
:1018A00020467026B0430E68304304461846012691
:1018B0007602B0430E693602304303461846FF26CF
:1018C0000136B0434E683602304303461848824220
:1018D00005D01848824202D0174882421FD11846CC
:1018E0000126F602B0434E69B6023043034618465D
:1018F0000126B602B0438E68B6023043034628463E
:1019000001263603B0438E6936013043054628462A
:1019100001267603B043CE69760130430546556013
:10192000D461C868D06300BF1362012070BD00009D
:10193000002C0140004401400048014070B50246BF
:10194000106A01263603B0431062146A5568D369E1
:10195000032636021846B0430346184607263603C8
:10196000B0430E6836023043034620460126760314
:10197000B0430E6936033043044620460126360341
:10198000B0434E683603304304460C48824205D0CB
:101990000B48824202D00B48824207D128460126DA
:1019A000B603B0438E69B601304305465560D36136
:1019B000C868106400BF1462012070BD002C014093
:1019C0000044014000480140F0B58BB00020029077
:1019D0000027019000900AA9262000F00FFA0028A5
:1019E00023D074480068401C7249086008460068AB
:1019F000082817DB002008606F480078012811D103
:101A00006E480078401CC0B26C490870012809DBA0
:101A1000002008706849087069490870487088702B
:101A2000C870087101200BB0F0BD6248006808283A
:101A300006DB00F0D5FE00205E4908600120F2E7D9
:101A4000932107A800F002F9002806D05948006841
:101A5000401C584908600120E5E702A907A800F0EA
:101A6000F8F9002806D053480068401C5149086026
:101A70000120D8E76846007A04210840002845D0B4
:101A80000027002F3ED1952108A800F0DFF800289C
:101A900006D048480068401C464908600120C2E75B
:101AA00002A908A800F010FA002806D041480068F2
:101AB000401C404908600120B5E76846007A0421CF
:101AC000084000281FD000200190019800286ED106
:101AD000972109A800F0BAF8002806D03548006818
:101AE000401C3449086001209DE702A909A800F0C4
:101AF00026FA002806D02F480068401C2D490860AF
:101B0000012090E753E00120019050E001270020E0
:101B1000284908606946C87F0006897F0904084390
:101B20006946497F090208436946097F08430090D6
:101B300000241AE00A210098FEF76CFB0D460A21EA
:101B40000098FEF767FB00900A210098FEF762FB01
:101B50000E460A210098FEF75DFB00903001401907
:101B60000421091B03AA5054641C052CE2DB6846BF
:101B7000007B134908706846407B48706846807B4C
:101B800088706846C07BC8706846007C0871012078
:101B900009490870002009490870052208490948C8
:101BA000FEF762FB012007490876AA203BE70020E8
:101BB00039E70000A4010020AE010020AF010020A1
:101BC000A9010020A106002010B508210846FFF752
:101BD000B9F900211220FFF7DFF900211320FFF7E8
:101BE000DBF926212420FFF7D7F968212620FFF70B
:101BF000D3F980212A20FFF7CFF9A9212B20FFF765
:101C0000CBF903212C20FFF7C7F9E8212D20FFF79E
:101C1000C3F940211520FFF7BFF93D211120FFF73F
:101C2000BBF900210120FFF7B7F900F001F810BD62
:101C300010B51420FFF796F90446A007800F00287E
:101C400003D103211420FFF7C1F910BDF0B589B00D
:101C500005460E46002708210846FFF773F90021C4
:101C60000D20FFF799F980210E20FFF76BF96846E8
:101C700006722021417207A802AB022202A900903D
:101C80000C2000F01DF808900898002811D10024BD
:101C900007E002A8005D285502A8005D4740601CCF
:101CA000C4B2042CF5DB02A8005DB84201D00220CA
:101CB000089080210E20FFF789F9089809B0F0BD3F
:101CC000FFB583B0064602200290002001900090EC
:101CD0000C2E06D00E2E09D112200190102000905B
:101CE00005E0772001903020009000E000BF00BFA9
:101CF00080210420FFF726F900210120FFF74CF98D
:101D000080210A20FFF762F9002505E00498415D73
:101D10000920FFF741F96D1C05988542F6D331463D
:101D20000120FFF739F90C2E03D180210D20FFF798
:101D30004DF94B25ED0000BF0420FFF713F90446D1
:101D40006D1E002D07D0E007C00F002803D10098BA
:101D500020400028F0D080210D20FFF7F3F8002D5F
:101D60003ED00620FFF7FEF8234908700620FFF753
:101D7000F9F81B210840002830D10290019820403A
:101D8000C007C00F002801D0012002900C2E27D1DF
:101D90000A20FFF7E7F804460C20FFF7E3F84707AF
:101DA0007F0F002F05D0601EC000C1190C98016084
:101DB00002E0E1000C980160002C00D10124122CFB
:101DC00000DD1224002506E00920FFF7CBF80146CC
:101DD000069841556D1CA542F6D301E00220029001
:101DE00080210C20FFF7F2F800210120FFF7D4F842
:101DF000029807B0F0BD0000A801002070B588B0BF
:101E000005460C4608210846FFF79CF807210D20DF
:101E1000FFF7C2F803211420FFF7D8F868460572CF
:101E200007A802AB012202A900900C20FFF748FF8F
:101E30000646002E09D10798102806D16846007A78
:101E400020706846407A607000E00226304608B094
:101E500070BDF0B587B005460F4693216846017105
:101E6000702141710021817200240BE0295D01AADB
:101E7000A01C11546946887A295D484069468872D9
:101E8000601CC4B2042CF1DB02AA0332072101A8B2
:101E9000FEF77CFE08210846FFF754F806A801ABC0
:101EA000092201A900900C20FFF70AFF0646002E28
:101EB00006D10698182803D168460079387000E0EA
:101EC0000226304607B0F0BDF0B587B005460F4694
:101ED00095216846017170214171002181720024B1
:101EE0000BE0295D01AAA01C11546946887A295D7E
:101EF000484069468872601CC4B2042CF1DB02AA17
:101F00000332072101A8FEF741FE08210846FFF72A
:101F100019F806A801AB092201A900900C20FFF7CF
:101F2000CFFE0646002E06D10698182803D1684633
:101F30000079387000E00226304607B0F0BDF0B5F9
:101F400087B005460F4695216846017170214171A1
:101F50000021817200240BE0295D01AAA01C11540C
:101F60006946887A295D484069468872601CC4B217
:101F7000042CF1DB02AA0332072101A8FEF706FEBA
:101F800008210846FEF7DEFF06A801AB092201A9D9
:101F900000900C20FFF794FE0646002E06D106980E
:101FA000182803D168460079387000E002263046D0
:101FB00007B0F0BD70470000014600BF07488068C9
:101FC0000F22120210401040000A8000044A105CE8
:101FD000C206D20E0846D0407047000000100240F2
:101FE000C0340008014600BF06488068072212037B
:101FF0001040000B8000044A105CC206D20E084656
:10200000D0407047001002400035000870B5FFF75F
:1020100089F900280FD0082804D0182804D02028D7
:1020200008D104E0114C1EE00124E40300BF0124A8
:10203000E40300BF00BF00BF0D4800680721C902CC
:102040000840C10A0120884005460949496807221D
:1020500052031140490B8900064A50582946FEF7A1
:10206000D9F8044600BF00BF204670BD00366E019F
:10207000001002402035000810B575484089401C0A
:102080007349488108468089002811D00846808914
:10209000401E888108468089002809D10520000754
:1020A0000069012109030840002802D168494881DC
:1020B000CCE067494A896749887B411CCBB26549B6
:1020C0008B734300FF39F339CA5200241BE00A2006
:1020D00060436149085A5E494989884212DA5C487E
:1020E00041890A2060435C4A80184088814209DAAD
:1020F000212109015648FEF7D0F855490C720120FC
:10210000C87110BD641C0A2CE1D35148C079002865
:1021100031D04F48007A0A2148434F49401800798E
:102120004B494989884226DA49484189007A0A227E
:102130005043494A8018407981421CDA444B9979CE
:10214000CB175B0F5B18DB10414C1A1923469879AB
:10215000C3175B0F1B18DB10DB00C31A0724E41A3C
:102160000123A34014782343137039488079401C1D
:10217000374988713FE03648C079002831D034486B
:10218000007A0A2148433449401880793049498906
:10219000884226DA2E484189007A0A2250432E4A84
:1021A0008018C07981421CDA294B9979CB175B0FD3
:1021B0005B18DB10264C1A1923469879C3175B0F5E
:1021C0001B18DB10DB00C31A0724E41A0123A34009
:1021D00014789C4314701E488079401C1C498871F7
:1021E00009E01B48C079002805D0212109011848C1
:1021F000FEF753F885E716488179007A0A225043A2
:10220000154A8018007A814220D11148807900282F
:102210001CDD0120114948720D48007A88720C4972
:10222000097A0A2251430C4A8918087AC117490FC2
:102230000918C910094A1172062205490748FEF714
:1022400013F8212109010248FEF727F800BF58E7DB
:102250003403002034050020DC0000204405002069
:10226000F8B5054600268024002700BF29E080211C
:1022700005200007FEF7FFFF28462040002805D074
:10228000402105200007FEF7FAFF04E04021052069
:102290000007FEF7F0FF802105200007FEF7EFFFA3
:1022A00020200521090709690140814201D101214E
:1022B00000E00021012902D1304620430646641087
:1022C0007F1C082FD3DB3046F8BD70470B480068F1
:1022D000401C0A4908600A48407800280CD0084889
:1022E0004078401C0649487008464078052803DBC2
:1022F000002048700120887070470000D000002046
:102300003002002010B500BF27480068FF210131CE
:1023100008432549086000BF2449098AC804C00C45
:102320000122D203104320494968090C09040143E2
:102330001D4A516000BF00BF00BF1B48006801215B
:1023400089020840800A0028F6D0002016498968D2
:102350000F22120291430143134A916000BF00BF54
:1023600011468968C908C9000143916000BF00BFD8
:1023700000BF0D488068382108400028F8D100BF10
:10238000094989680722120391430143064A916073
:1023900000BF0748FEF7B2FF0548FEF7D9FF03204C
:1023A0000449086110BD000000100240000FFF1F2B
:1023B00000366E0100E000E007484068000C0004B1
:1023C000012149034018054949680843024948600A
:1023D000C80303498860704700100240000FFF1FC8
:1023E00000ED00E000200B4908800B4908800B49F4
:1023F00008800B4908800BE0064800F027F80648E3
:1024000000F05CF8054800F083F8054800F0F6F8A5
:10241000F2E7000058010020680100207001002050
:102420006001002010B500BF0120C04305490861CC
:1024300000BF05480068401C03490860FFF71CFE08
:1024400010BD000000040040D400002010B5044678
:102450002088002802D0312825D104E022E000BFE6
:102460003120208000BF1248007E002800D110BD1E
:1024700000BF1048016810480068C830814206D982
:1024800004230B4A521C01210846FEF73BFC19218C
:102490000748FDF702FF0748006807490860002069
:1024A00003490876DBE7002020800220DFE70000F8
:1024B00088060020D00000208001002010B50446CE
:1024C0002088002802D04A2819D104E016E000BF75
:1024D0004A20208000BF0C488078002800D110BD21
:1024E00000BF0A48C178FD38FEF7A6FB00F05AFE8F
:1024F00000200549887000210448C170E7E70020EA
:1025000020800220EBE70000300200203003002092
:1025100038B504462088002802D078285ED152E0E1
:102520005BE00A212F480068FDF774FE002907D1FF
:1025300000F098FF00BF2C482C49086000BF00BF86
:102540000A2128480068FDF765FE002901D1FEF741
:1025500027FA642123480068FDF75CFE002917D1A3
:10256000234908684968FEF759F80004010E6846D7
:1025700001701F4908684968FEF750F8C1B2684603
:10258000417002236A4601210420FEF7BBFB00BF15
:10259000184800681849884201D9FFF7ADF8FEF7DE
:1025A0002BFB10480068401C0E4908601148006869
:1025B000401C1049086000BF00F012FD606000BFC1
:1025C0007820208000BF00F00BFD6168401A64286D
:1025D00001D2002038BD00BF00BFA2E7002020804C
:1025E0000220F7E784010020AAAA00000030004082
:1025F000480100207C0100207017000070B50546DE
:1026000000242888002802D08B2850D104E04DE017
:1026100000BF8B20288000BF2748407A002800D1C7
:1026200070BD00BF002408E02348005D2349095D18
:10263000884200D005E0601CC4B21F48007AA04266
:10264000F2DC00BF1C48007AA0420CD11A48007A84
:102650001B490978884206D11A4801681A4800685F
:10266000C830814212D91448007A062807D112488E
:10267000037A024602210320FEF744FB06E00E48DF
:10268000037A024601210320FEF73CFB06220A4999
:102690000A48FDF7E9FD0848007A09490870094829
:1026A000006809490860002003494872B0E700202B
:1026B00028800220B4E70000440500208C0100209F
:1026C00094010020D0000020880100200A48006802
:1026D0002021084000280ED007484068C1B20748B2
:1026E000C278C078401CC3B20448C370FD3881541E
:1026F0000120034948707047004400403003002027
:102700003002002010B503460C461946E21DF9328E
:1027100000BF49005200FF2001301040002800D0C7
:10272000491C012000040840002801D00448414011
:102730000120000410400028EBD088B210BD00003A
:1027400021100000F8B505460E460024AF1905E03B
:1027500029786D1CA0B2FFF7D5FF0446BD42F7D320
:10276000A0B20021FFF7CEFF044620460021FFF76C
:10277000C9FF04462046F8BD2021020C01D01021DB
:102780001046020A01D010460839020901D010464D
:10279000091F820801D01046891E420801D0881EF8
:1027A0007047081A704730B47446641E2578641C5C
:1027B000AB4204D3635D5B00E31830BC18471D4691
:1027C000F8E702E008C8121F08C1002AFAD17047D2
:1027D0007047002001E001C1121F002AFBD17047A1
:1027E00010B504210748FEF746FD1420FEF722FF2E
:1027F00004210448FEF743FD0A20FEF71BFFFFF704
:10280000E3F910BD00040050F3B583B00446002581
:1028100040E00021002019E0AE00AE193618334622
:102820000933DE17760FF618F610A65DAF00EF1924
:102830003F183A460932D7177F0FBF18FF10FF0025
:10284000D71B3E41F607F60F7118401C0428E3DB46
:10285000AB00EB181A460D32D3175B0F9B18DB1039
:10286000E65CAB00EB1818460D30C3175B0F1B1866
:10287000DB10DB00C31A1E41F307DB0F59180846B3
:10288000CA0F1218521052008A1A02D0002005B046
:10289000F0BD6D1C05210498FDF7D2FC401EA84236
:1028A000B7DC00253FE00026002719E0BA00BA187F
:1028B000521911460931CA17520F5218D210A25C90
:1028C000BB00FB185B1918460930C3175B0F1B18B8
:1028D000DB10DB00C31A1A41D207D20F96197F1CF6
:1028E00005210498FDF7ACFC401EB842DEDC294609
:1028F0003B31CA17520F5218D210A25C0846C317B8
:102900005B0F1B18DB10DB00C31A1A41D207D20F72
:1029100096193046F10F091849104900711A01D073
:102920000020B4E76D1C042DBDDB002002905CE0AC
:102930000020019053E0029A9300D318019A9A184C
:1029400011460931CA17520F5218D210A25C029BCD
:102950009D005D19019BEB1818460930C3175B0FEA
:102960001B18DB10DB00C51A0123AB401A40002AFC
:1029700001D0012200E000220092009800282BD014
:1029800002998B0001995A181146D5176D0F6D18D1
:10299000ED10ED001346D617760FF618F610F60078
:1029A000961B0727BE1BA8190146C5176D0F6D188A
:1029B000ED10134E755D0346C617760FF618F61028
:1029C000F600871B0126BE403543C617760F7618E2
:1029D000F6100B4FBD5500BF0198401C01900198A7
:1029E0000428A8DB0298401C029005210498FDF7FA
:1029F00027FC401E029988429ADC012047E700002C
:102A000088060020084840690121C9070843064993
:102A1000486108464069C00FC007002801D1022064
:102A200070470020FCE700000020024010B504467B
:102A30001D481E49486188611D48C8614B208001BE
:102A4000086200BF1B4800690121090408400028F2
:102A5000F8D100F073F8002800D010BD1548406987
:102A600002210843134948610846406901210906CB
:102A7000084310494861FF2020606420FEF780F978
:102A80000C480069C007C00F002805D0094800693C
:102A90004008400007490861064840690221884310
:102AA0000449486100BFD8E74019010000210240F5
:102AB000C05D000000200240F8B505460E461446F1
:102AC00037461B48854204D228191A49884200D942
:102AD000F8BD00F033F8002800D0F9E71EE0FF222F
:102AE00080211548FDF7D2FB802C0BD3802239467C
:102AF0001148FDF7B9FB10492846FDF748FB803C1B
:102B000080370BE0002C09D0224639460A48FDF7F1
:102B1000ABFB09492846FDF73AFB0024002CDED127
:102B2000FFF770FF002800D0D2E700BFD0E7000019
:102B30000040000800800008B00100200A484069F9
:102B4000C00FC00700280CD0084807498860084813
:102B5000886008464069C00FC007002801D00120E6
:102B600070470020FCE70000002002402301674579
:102B7000AB89EFCD0520000700691021084000282F
:102B800001D0002070470120FCE700001CB50120A7
:102B9000FEF7A6FB0220FEF7A3FB00222021052062
:102BA0000007FEF76EFB0122402105200007FEF71B
:102BB00068FB0322402105200007FEF784FB00226A
:102BC000402105200007FEF769FB01228021052036
:102BD0000007FEF756FB0322802105200007FEF7C1
:102BE00072FB0022802105200007FEF757FB01221F
:102BF00002215A48FEF745FB032202215748FEF7FF
:102C000062FB002202215548FEF748FB022153488F
:102C1000FEF733FB012204215048FEF732FB03226A
:102C200004214E48FEF74FFB002204214B48FEF7DB
:102C300035FB04214948FEF720FB00221021052026
:102C40000007FEF71EFB0122102105200007FEF7FA
:102C50002DFB00200090019010200090012168467B
:102C600001710021417103218171FEF71FFA0021DA
:102C70000720FEF705FD0720FEF7F8FC01220421DE
:102C80003648FEF7FEFA032204213448FEF71BFB08
:102C9000002204213148FEF701FB04212F48FEF7F2
:102CA000ECFA0222082105200007FEF7EAFA0322C7
:102CB000082105200007FEF706FB01220821052058
:102CC0000007FEF7F3FA08200D2105221207136A08
:102CD00002464243424342431401A41A1A46A24305
:102CE00003464343434343434B431A4305231B07D4
:102CF0001A6200BF012208211848FEF7C2FA032217
:102D000008211648FEF7DFFA002208211348FEF7D3
:102D1000C5FA08201149886200BF0022410205203F
:102D20000007FEF7AEFA0122110305200007FEF7A7
:102D3000BDFA0120000300900121684601710021C5
:102D4000417103218171FEF7B1F900210720FEF7DF
:102D500097FC0720FEF78AFC1CBD00000004005011
:102D600010B56D490968CAB26C49C87D411CCBB227
:102D70006A49CB75E9390A5408461738807D00281E
:102D800013D16548006808280ED3634800680D28F1
:102D90000AD8FFF7EFFE002806D0012160488175B0
:102DA00001205F49203908709CE05D48807D012842
:102DB00025D15948006803281AD3574800680728C6
:102DC00016D85748407D401CC1B255484175407DDA
:102DD0001028E9D102215248817500214175FF2058
:102DE0004F4920390870012048700920488679E051
:102DF000FF2139314A482038FDF74FFA72E0484840
:102E0000807D02286ED14448006808282AD34248B1
:102E100000680D2826D8FFF7ADFE414908750B461E
:102E2000203B598ECB175B0F5B18DB103C4C203CD2
:102E30001A192346588EC3175B0F1B18DB10DB00D3
:102E4000C41A374B1B7DA3401478234313703448B6
:102E50002038408E401C32492039488600213048B5
:102E600041753FE02C480068032835D32A480068A4
:102E7000072831D82A48407D401CC1B228484175F6
:102E80000146487DC10F091849104900411A29D14E
:102E9000FFF770FE224908750B46203B598ECB1771
:102EA0005B0F5B18DB101E4C203C1A192346588E12
:102EB000C3175B0F1B18DB10DB00C41A184B1B7DFC
:102EC000A34014782343137015482038408E401CCB
:102ED00013492039488605E0FF2139311048203850
:102EE000FDF7DBF90E482038408E40280FD13721FE
:102EF0000B482038FFF788FC002802D00120094940
:102F00000876FF21393106482038FDF7C6F9002040
:102F10000149086010BD0000D400002070060020A8
:102F2000700500208806002010B54021052000070C
:102F3000FEF7A5F902211048FEF7A1F9802105202E
:102F40000007FEF79CF904210B48FEF798F90421CD
:102F50000948FEF790F96420FEF76CFB042106484F
:102F6000FEF78DF96420FEF765FBFEF72DFE642069
:102F7000FEF760FB10BD00000004005010B5FFF725
:102F8000C1F9FDF79FFFFDF76BFFFFF7FFFDFDF7B1
:102F900069FC00F08DF800F029F8FFF7C5FFFFF796
:102FA00021FA002010BD000070B502460B46FF2537
:102FB000FF2408E01178521C69400748405C6040DB
:102FC00005460648445C18465E1EB3B20028F1D19F
:102FD0002002284370BD0000B8350008B83600084C
:102FE0000148006870470000D000002000B58DB097
:102FF0000120C002FEF716F8142108A8FDF74DF9CC
:1030000000200B900990002168460184C0200A909E
:1030100008A801746846FEF723FA6020009000209B
:103020000490059006900790602003906A46012165
:103030001D48FEF7E5F908A91B48FEF795F90120A0
:10304000C003194940314860682017498861084623
:10305000FEF784F90120144908620220FDF7D4FF2D
:1030600000200B9009902721684601841C200A90BB
:10307000002108A8017408A90C48FEF775F900BFE3
:103080000A48C068012108430849C86000BF0846D3
:10309000FEF764F91020FEF7E9FA00211020FEF790
:1030A000EFFA0DB000BD0000002C0140000400400C
:1030B00000B58DB00120FEF713F901204004FDF7A3
:1030C000A3FF04200790022008900320099000200D
:1030D0000A9001200B9004200C9007A905200007FE
:1030E000FEF74CF80220079009200C9007A9052054
:1030F0000007FEF743F800211C20FEF7C1FA1C2050
:10310000FEF7B4FAE1204002009000200190029006
:1031100003900C2004900020059006906946124808
:10312000FEF7A8F900BF104800690121C9028843D1
:103130000D49086108464069082188430A494861E9
:1031400000BF00BF0846C068202108430649C86088
:1031500000BF00BF0846C068491408430249C86060
:1031600000BF0DB000BD00000044004010B5024695
:1031700000200BE0135C0A4C636000BF084B1B6827
:1031800080242340002BF9D0431CD8B28842F1DBC5
:1031900000BF03480068402318400028F9D010BD44
:1031A000004400401CB51748006800280DD100BF3E
:1031B00008E01549095C154A125C914200D01CBD1B
:1031C000411CC8B20828F4DBF9E70E480068002863
:1031D00016D00D48FD30C1786B4601AAFD3800F0CD
:1031E00017F804460520FEF725FA684600880028EF
:1031F00005DD68460088C1B201A8FFF7B7FF00BF30
:1032000000BFDCE7BC06002033020020950100204F
:10321000F8B5044615461F4600209049886320787B
:1032200018280AD16078182807D13C218B48FDF76F
:1032300034F8002089490860F8BD88480068030018
:10324000FFF7B1FA07F8050E74CEF8E3F800432053
:103250002870012038800220804908600120EBE7B7
:103260002078012805D16078002802D1A078FF28B5
:1032700003D000203880401EDEE7002606E0F01C68
:10328000215C7648001D8155701C86B2F01C205CC4
:10329000002801D0802EF2DB802E02DB0020C0430C
:1032A000CAE700216D48001D8155301D80B2009095
:1032B00000260CE06948C0690A2148430099891931
:1032C000615C303940186549C861701C86B200984D
:1032D0008019205C302806DB00988019205C3A2891
:1032E00001DA0A2EE6DB5D48C0697F30C0095B4920
:1032F00048620846406A0121490288420BD91820D9
:1033000028706870022038803C215448FCF7C5FFC3
:103310000020C04390E706202870432068700220F8
:10332000388003204D490860012085E72078012876
:1033300006D161784948008C401CC0B281421BD044
:1033400061784648006A401C814204D206202870F9
:103350000120388008E0182028706870022038802A
:103360003C213E48FCF799FF3C48406B401C3B49E0
:1033700048630020C0435FE78221E01CFFF7E2F9C9
:10338000002805D01520287001203880801E53E7C2
:103390003248406B401C31494863096AC901304AD0
:1033A00088188022E11CFFF787FB2C48006A401C2C
:1033B0002A4908620846006A496A884207D30620FB
:1033C00028700120388004202449086003E006208A
:1033D00028700120388000202049486301202BE715
:1033E0002078042807D01D48406B401C1B494863C7
:1033F0000020C04320E70620287043206870022088
:10340000388006201549086025E02078012805D17C
:103410006078002802D1A078FF280CD015202870F1
:10342000012038800D48406B401C0C494863002047
:10343000C04301E70CE03C210848FCF72EFF0620C2
:103440002870012038800020044908600220F3E63B
:103450000020C043F0E600BF0020EDE6BC060020DF
:103460000040000808B515480068002825D013481A
:10347000806B401C114988630846806B03280AD979
:103480000846406B401C48631520694608700121BE
:103490006846FFF76BFE0948406B05280CDD3C21B0
:1034A0000648FCF7FAFE18216846017041700221B7
:1034B000FFF75CFEFEF720F900BF08BDBC06002048
:1034C00000000000000000000000000000000000FC
:1034D00000000000000000000000000000000000EC
:1034E00001000000020000000300000004000000D2
:1034F00006000000070000000800000009000000AE
:1035000000000000000000000000000000000000BB
:1035100001000000020000000300000004000000A1
:1035200000093D0000127A000024F4004086510199
:1035300000366E0100093D0000093D0000093D0014
:10354000081C300000000004040400000800000013
:10355000080000080000000800020406080A0C0029
:103560000102030405067F0D670D4F0D360D1C0D7E
:10357000020DE80CCD0CB10C950C780C5B0C3E0CDC
:10358000200C010CE20BC30BA30B830B620B410B52
:10359000200BFF0ADD0ABB0A990A760A530A300A91
:1035A0000D0AEA09C709A30980095D093909150946
:1035B000F208CF08AB08880800C1814001C08041F3
:1035C00001C0804100C1814001C0804100C18140F3
:1035D00000C1814001C0804101C0804100C18140E3
:1035E00000C1814001C0804100C1814001C08041D3
:1035F00001C0804100C1814001C0804100C18140C3
:1036000000C1814001C0804100C1814001C08041B2
:1036100001C0804100C1814000C1814001C08041A2
:1036200001C0804100C1814001C0804100C1814092
:1036300000C1814001C0804101C0804100C1814082
:1036400000C1814001C0804100C1814001C0804172
:1036500001C0804100C1814000C1814001C0804162
:1036600001C0804100C1814001C0804100C1814052
:1036700000C1814001C0804100C1814001C0804142
:1036800001C0804100C1814001C0804100C1814032
:1036900000C1814001C0804101C0804100C1814022
:1036A00000C1814001C0804100C1814001C0804112
:1036B00001C0804100C1814000C0C101C30302C2FA
:1036C000C60607C705C5C404CC0C0DCD0FCFCE0E62
:1036D0000ACACB0BC90908C8D81819D91BDBDA1AD2
:1036E0001EDEDF1FDD1D1CDC14D4D515D71716D642
:1036F000D21213D311D1D010F03031F133F3F232B2
:1037000036F6F737F53534F43CFCFD3DFF3F3EFE21
:10371000FA3A3BFB39F9F83828E8E929EB2B2AEA91
:10372000EE2E2FEF2DEDEC2CE42425E527E7E62601
:1037300022E2E323E12120E0A06061A163A3A26271
:1037400066A6A767A56564A46CACAD6DAF6F6EAEE1
:10375000AA6A6BAB69A9A86878B8B979BB7B7ABA51
:10376000BE7E7FBF7DBDBC7CB47475B577B7B676C1
:1037700072B2B373B17170B0509091519353529231
:1037800096565797559594549C5C5D9D5F9F9E5EA1
:103790005A9A9B5B99595898884849894B8B8A4A11
:1037A0004E8E8F4F8D4D4C8C448485458747468681
:1037B0008242438341818040666C617368206472F9
:1037C0006976657200000000617070006361726369
:1037D000206D3100F437000800000020B001000027
:1037E000CC07000838380008B00100204809000064
:1037F000D227000801C20815127A00B83700082E37
:1038000035015501080F1D241800BA00DA2A030AF1
:103810001017180037005706590409080D305210C8
:10382000022201051AC837000849FF0A50A55A3874
:0838300026FED5CC370008008C
:04000005080000C12E
:00000001FF
