:020000040800F2
:10000000300A0020450100082110000831090008CD
:1000100000000000000000000000000000000000E0
:10002000000000000000000000000000271E000883
:1000300000000000000000004D1B0008291E000801
:100040005701000857010008570100085701000830
:1000500057010008C108000857010008E10800081E
:1000600000000000570100085701000800000000D0
:100070005701000857010008570100080000000060
:10008000811F000857010008000000005701000808
:100090000000000057010008570100085701000840
:1000A0000000000057010008000000005701000890
:1000B00021220008000000000000000000000000F5
:1000C0000448854600F07EFA0048004765070008AE
:1000D000C046C046300A0020F3B581B00024019E1E
:1000E000029F642000F008FC154840690121084384
:1000F0001349486100BFEFF31080054672B60EE069
:10010000386830603F1D361D601CC4B21F2C06D1FC
:100110000B4840690121C904084309494861202C62
:10012000EED3642000F0E8FB054840694008400039
:100130000349486100BF85F3108800BFFEBD000081
:10014000002002400448804704480047FEE7FEE7DD
:10015000FEE7FEE7FEE7FEE7151F0008C100000806
:1001600030B50B46014600202022012409E00D464F
:10017000D5409D4205D31D469540491B25469540D7
:1001800040191546521E002DF1DC30BD03460B43CD
:100190009B0703D009E008C9121F08C0042AFAD23D
:1001A00003E00B780370401C491C521EF9D27047C3
:1001B000D2B201E00270401C491EFBD270470022FF
:1001C000F6E710B513460A4604461946FFF7F0FF56
:1001D000204610BDF0B51FB40646002082B005468B
:1001E0004024019100901BE0019922460F463046C1
:1001F00000F00AFA049A059B801A994110D3104620
:100200001946224600F0F0F9361A8F41019722462E
:1002100001200021009F00F0E7F938184D410090BF
:100220002046641E0028DFDC019B009829463246E8
:1002300007B0F0BDF0B507460846584087B0C00F7C
:10024000049048000E46590040084908BC1A8841ED
:1002500005D2384631461E4617460B460246580020
:10026000400810434DD0300D039040055900400D1B
:10027000490D0590401A0290402873DA18030121B5
:10028000000B09050843019004980092002806D04D
:100290001146019A49420020904100910190029834
:1002A00040210A1A0199009800F09EF905460C4673
:1002B0006B4607CB00F0B9F9C0197141039A0E0DD6
:1002C0000023D71756401A467A40164344D0049A62
:1002D000002A2DD0029A012A039A15DC1205C01AB1
:1002E000914101263605001C7141D20F059ED207AF
:1002F0000093019202962A46234600F0B6F907B011
:10030000F0BD38463146FAE71605234A0F46B218C3
:10031000C01AB74101210905001C4F4100187F4157
:10032000114618187941E20F10436D19644113E02A
:10033000E2076D0815436408C2071443039A0126B7
:100340001205C01A91413605001C7141CE074008C4
:1003500030434908C01851412A46234600F078F935
:10036000CDE7FFE7049801224000C117121A0023CD
:100370008B4104983146C417381AA141EEE730B4D6
:100380000124E407634030BC54E730B40124E4079F
:10039000614030BC4EE700000000E0FFF0B51FB444
:1003A00088B00B990998002448400999C00F49006A
:1003B00049080991C0070B990090490049080B9121
:1003C00009990898A64608431CD00B990A98084337
:1003D00018D0099801244000420D4800410D0998A9
:1003E00024050003000B204309900B980003000B29
:1003F00020430B9050181C494018002201901446CD
:10040000104605E0002001460DB0F0BD032801DADA
:10041000034600E003239C46C11A0AAE0AE05F00CF
:1004200008ADED5B4F00F75B7D430027AA187C41C8
:10043000491C5B1E6145F2DD410004AB5A522104A8
:10044000120C0A43240C401C0828DFDB01980290A0
:100450000099704601910090059B049A07990698AF
:1004600000F003F9D0E700000DFCFFFFF0B50C46EB
:100470005C4085B0E40FE40703944C000026640858
:1004800059009446490802460296224321D062460A
:100490000A431ED06200570D4A000E032303550D78
:1004A000012402462C492405781B1B0B360B4018EF
:1004B00023432643614600901C46501AB44103D39F
:1004C0000098401C009002E0921800985B410028C0
:1004D00003DA0020014605B0F0BD00200121090526
:1004E0000746864611E064461D46141BB54106D3F7
:1004F0006546521BB341744607430C43A646CD07DD
:1005000040084908284392185B4105460D43EAD14B
:100510001046184313D060461946504071400843B6
:1005200006D06046101AB34106D20122002306E02D
:1005300000220123DB0702E00122D243531000987E
:1005400074460105381C6141029C039D00196941F4
:1005500000F07EF8BFE70000FD0300004A00090339
:100560000123090B1B0519430A4B10B5520D9A4282
:1005700002DA0020014610BD064B34339A4203DCF8
:100580009A1A00F041F810BD034BD21800F02CF875
:1005900010BD0000FF030000CDFBFFFF10B50029D8
:1005A00004DB0124E40740428C412146002B04DB9C
:1005B0001C460123DB075242A341994200D19042DD
:1005C00010BD0000064C0125064E05E0E36807CC8F
:1005D0002B430C3C98471034B442F7D3FFF774FD1B
:1005E000283D0008483D000810B5202A04DB0146DC
:1005F000203A9140002010BD914020239C1A0346D0
:10060000E3401943904010BD10B5202A04DB084692
:10061000203AD040002110BD0B46D340D0402024CA
:10062000A21A91400843194610BD10B5202A06DBD6
:10063000CB170846203A1041C1170B4306E00B4682
:100640001341D0402024A21A91400843194610BDFE
:1006500010B5002B08DA0024401C614192185B4160
:100660001A4301D14008400010BDF0B51FB482B05C
:1006700005460C0003D0084601F042FE02E001F0FE
:100680003FFE20300246009021462846FFF7ACFF8F
:10069000049B059A04460F4618431143084314D09F
:1006A000184610431BD0009840210A1A1846059995
:1006B000FFF7AAFF05460E46009A05990498FFF732
:1006C00093FF084305D0012004E02046394607B0D7
:1006D000F0BD0020C11705430E432C43374300995A
:1006E0000E986305401A7905E40A00220C43FD0ABE
:1006F0000A3002D500200146E9E7010510196941D9
:100700000C9C0D9D00196941FFF7A2FFDFE770B552
:100710008C180578401C6B075B0F01D10378401CD7
:100720002A1106D10278401C03E006780E70401CA6
:10073000491C5B1EF9D12B0705D40023521E0DD492
:100740000B70491CFAE70378401CCB1A921C03E09B
:100750001D780D70491C5B1C521EF9D5A142D8D3DF
:10076000002070BD70B50125ED06002406E0A00054
:100770002858A100064A5050601CC4B2302CF6DB49
:10078000012040070349886002F0EAFD002070BDA7
:100790000000002000ED00E0F7B5074615460421F3
:1007A000052000F0C7F80021012000F0EDF88021BD
:1007B0000A2000F003F9002405E0395D092000F06B
:1007C000E3F8601CC4B201988442F6DB03210120E7
:1007D00000F0DAF8FF2400BF052000F0BBF8064661
:1007E000601EC4B2002C03D0042030400028F3D097
:1007F000222000F0AFF82870212000F0ABF86870DC
:10080000FEBD000010B588B000F0A0FD2148407981
:1008100000283DD01F4800791E49C9781D4A9278AA
:100820001C4B5B7800930192029103901948037866
:1008300019A222480168032002F042FD0221684605
:100840000175052141751348017868468175114885
:1008500041786846C1750F488178684601760D4831
:10086000C178684641760B48017968468176072150
:1008700005A802F093FD044621126846C17604776C
:10088000092105A802F076FE00200249487100BF48
:1008900008B010BDE70000204D3120636172643A5A
:1008A00025303278202530327820253032782025C6
:1008B00030327820253032780D0A000014010020F3
:1008C00010B5012000F02EF9002805D0012000F01D
:1008D00093F802200149488110BD0000D002002099
:1008E00010B5102000F01EF9002804D0102000F0F0
:1008F00083F802F019FC10BD70B5044602F06AFDE1
:10090000051905E002F066FDA84201D3002070BD84
:10091000054800690121090408400028F2D1034874
:10092000014908610120F2E7002002401180000027
:1009300000BFFEE770B505460C460026284600F0CD
:1009400009F806463046A0430146284600F01CF848
:1009500070BD000070B504460025A006400E044698
:1009600080340221074800F062F9204601F026FA9F
:10097000002001F023FA05460221024800F05BF94D
:10098000284670BD0004005070B505460C46022193
:10099000094800F050F9A806450E0221064800F06B
:1009A00046F9284601F00AFA204601F007FA02212A
:1009B000014800F040F970BD0004005070B50546D4
:1009C0000C4600262846FFF7C5FF06463046204362
:1009D00001462846FFF7D8FF70BD000008B505495D
:1009E000C96B0143034AD1631146C96B01400091B1
:1009F00000BF08BD001002400149C86070470000F8
:100A000000180240024949688143014A5160704719
:100A100080180240024909688143014A1160704709
:100A200080180240024949680143014A51607047F9
:100A300080180240024949680143014A51607047E9
:100A400000180240024909680143014A11607047D9
:100A500080180240024909680143014A1160704749
:100A60000018024070B504460025207900284ED0B9
:100A70002068002851D06079002804D0012809D0CE
:100A8000022815D10DE02068FFF7BCFF2068FFF7B2
:100A9000D9FF0FE02068FFF7BDFF2068FFF7C2FF16
:100AA00008E02068FFF7CEFF2068FFF7BBFF01E0FA
:100AB000012500BF00BFA07900282ED0A079012811
:100AC00004D002280DD003281DD115E02068144958
:100AD00049688143124A516000BF2068FFF7BAFF9E
:100AE00014E020680E49096881430D4A116000BF77
:100AF0002068FFF79FFF09E02068FFF7ABFF206841
:100B0000FFF798FF02E00220054300BF05E02068E0
:100B1000FFF780FF2068FFF775FF284670BD0000D3
:100B20000018024001460248C068084070470000B3
:100B300000180240F0B502460B46002661E0012491
:100B4000B4401968214000295AD0586814680D46ED
:100B50004D436F00ED19AC430D464D4345432C43C7
:100B6000146000BF5868012802D0586802280DD1CF
:100B7000986894680D464D436F00ED19AC430D46DF
:100B80004D4345432C43946000BF00BF1869D468AF
:100B90000D464D436F00ED19AC430D464D434543A3
:100BA0002C43D46000BF5868022829D1FF2911D8EE
:100BB0005869146A0D464D434D434D432F017D1B2B
:100BC000AC430D464D434D434D4345432C431462C6
:100BD00000BF15E05F69080A40430C0A60430C0A35
:100BE00060430401241A506AA0430C0A64430D0AAE
:100BF0006C430D0A6C437C432043506200BF00BF2E
:100C0000761C1868F040002899D15868012802D055
:100C10005868022809D1DC6818685568854307467A
:100C200067433D43556000BF00BF0120F0BD8162B6
:100C30007047816170478161704730B503680C4629
:100C40004C4365006419A3430C464C43544323436F
:100C5000036030BD10B543688B430C4654432343B7
:100C6000436010BD30B5C3680C464C436500641941
:100C7000A3430C464C4354432343C36030BD30B5BB
:100C800083680C464C4365006419A3430C464C43EF
:100C900054432343836030BD08B50549496B014384
:100CA000034A51631146496B0140009100BF08BDE2
:100CB0000010024070B504467D25ED00294620460F
:100CC000FFF74EFA401E0449486100208861052064
:100CD000086100BF70BD000000E000E002488068CD
:100CE00038210840704700000010024010B504464B
:100CF00000F058FF2060206800F02AFF6060606804
:100D000000F03CFFA06010BD014908607047000082
:100D1000C0000020016801221143016070470000FB
:100D200010B5024613681F48824202D01E48824214
:100D300005D118467024A0434C6820430346194847
:100D400082420BD01848824208D01848824205D00F
:100D50001748824202D01748824206D1184603241F
:100D60002402A043CC682043034613608868D06205
:100D700000BF0888906200BF0A48824205D00C4834
:100D8000824202D00B48824203D1087C106300BF2C
:100D900000BF00BF506901242043506100BF012003
:100DA00010BD0000002C0140000400400020004065
:100DB0000044014000480140F8B506460C4615467F
:100DC0000027012C0AD0102C0ED0E01FF938002883
:100DD00010D00F210902401A18D111E029463046DF
:100DE00000F066F9074612E02946304600F0B0F9F7
:100DF00007460CE02946304600F008FA074606E0B0
:100E00002946304600F05CFA074600E000BF00BF0C
:100E10003846F8BD81637047002101604160816000
:100E2000C160016141618161C1617047FEB50546E4
:100E30000C4600270026284600F038F8002831D15B
:100E4000E1686068084321690843E968164A11406F
:100E50000843E86068690121C9028843A169084321
:100E60006861A06829690122520391430143296105
:100E700000BF6069696903221202914301436961FD
:100E800000BF6846FFF732FF029E002E0AD020689E
:100E9000002807D00127314628462368A26900F0C0
:100EA0000CF800BF3846FEBDF3E9FFFF0146C868F5
:100EB000012252031040400B7047FFB583B00C462F
:100EC0001D460121C9020598884247D169001922AF
:100ED00062431046FFF744F906466421FFF740F9E4
:100EE00007016900192262431046FFF739F90646E7
:100EF0006900192262431046FFF732F9642101901C
:100F0000FFF72EF964214843301AC00032300290B6
:100F1000FFF726F9F821084040003F186900192220
:100F200062431046FFF71CF9064669001922624326
:100F30001046FFF715F964210190FFF711F96421BC
:100F40004843301AC00032300290FFF709F94007D9
:100F5000400F381881B20398816045E0A90019223A
:100F600062431046FFF7FCF806466421FFF7F8F8E5
:100F70000701A900192262431046FFF7F1F806465F
:100F8000A900192262431046FFF7EAF86421019094
:100F9000FFF7E6F864214843301A0001323002902E
:100FA000FFF7DEF8F02108403F18A900192262433C
:100FB0001046FFF7D5F80646A900192262431046ED
:100FC000FFF7CEF864210190FFF7CAF86421484387
:100FD000301A000132300290FFF7C2F80007000F0C
:100FE000381881B20398816007B0F0BD08B501469A
:100FF0000A4A1269009200BF0846421C002A00D02B
:10100000401C07E0054A126901231B041A40002A0C
:1010100000D0401E0028F5D108BD000000E000E02F
:1010200070470000C206D20E01219140014A1160B2
:101030007047000000E100E010B5002819DA1A4AF4
:1010400003071B0F083B9B089B00D2588307DC0E4D
:10105000FF23A3409A438B071B0E8407E40EA34093
:101060001A43114B0407240F083CA408A4001A518A
:1010700018E00E4A03231B02D21883089B00D258A3
:101080008307DC0EFF23A3409A438B071B0E8407C4
:10109000E40EA3401A43054B032424021B198408C1
:1010A000A4001A5110BD00001CED00E000E100E0BA
:1010B00070B50246106A400840001062136A556815
:1010C0009469A408A40020467026B0430E683043FB
:1010D000044618460226B0430E69304303465808BA
:1010E00040004E68304303461648824205D01648F9
:1010F000824202D0154882421CD118460826B043CD
:101100004E69B6003043034618460426B0438E6845
:10111000B600304303462846FF260136B0438E69A9
:1011200030430546284601267602B043CE69760054
:101130003043054655609461C868506300BF136230
:10114000012070BD002C01400044014000480140D6
:10115000F8B504460D46206A102188432062266AAD
:1011600060680090A7690321090238468843074652
:1011700038460721090388432968090208430746BE
:101180003046202188432969090108430646304634
:1011900010218843696809010843064618488442BB
:1011A00005D01848844202D0174884421DD13046E9
:1011B00080218843696989010843064630464021F9
:1011C0008843A968890108430646012189020098DD
:1011D0008843A9698900084300900121C902009849
:1011E0008843E969C9000843009000986060A761DE
:1011F0002046E968FFF70EFE26620120F8BD0000D8
:10120000002C0140004401400048014070B50246F6
:10121000106AFF260136B0431062136A5568D4691C
:10122000A408A40020467026B0430E68304304464C
:10123000184601267602B0430E6936023043034653
:101240001846FF260136B0434E6836023043034647
:101250001848824205D01848824202D0174882427C
:101260001FD118460126F602B0434E69B60230433C
:10127000034618460126B602B0438E68B6023043D4
:101280000346284601263603B0438E6936013043B3
:101290000546284601267603B043CE6976013043E1
:1012A00005465560D461C868D06300BF1362012051
:1012B00070BD0000002C0140004401400048014086
:1012C00070B50246106A01263603B0431062146AF4
:1012D0005568D369032636021846B04303461846BC
:1012E00007263603B0430E683602304303462046D5
:1012F00001267603B0430E69360330430446204688
:1013000001263603B0434E683603304304460C488A
:10131000824205D00B48824202D00B48824207D15C
:1013200028460126B603B0438E69B6013043054610
:101330005560D361C868106400BF1462012070BD9D
:10134000002C01400044014000480140F0B595B038
:1013500000200C9000270B900A9014A9262000F082
:1013600019FB002823D0B4480068401CB24908602B
:1013700008460068082817DB00200860AF4800789E
:10138000012811D1AE480078401CC0B2AC490870A9
:10139000012809DB00200870A8490870A9490870D5
:1013A00048708870C8700871012015B0F0BD10A891
:1013B000407C009010A8037CA3A2AB4801680320E6
:1013C00001F07EFF9C480068082806DB01F024FC41
:1013D0000020994908600120E7E7932111A800F057
:1013E00001FA00280CD0A1A29F480168032001F057
:1013F00067FF91480068401C8F4908600120D4E7CE
:101400000CA911A800F0F1FA00280CD09CA2964873
:101410000168032001F054FF87480068401C86499A
:1014200008600120C1E708A8037C99A28E480168E2
:10143000032001F045FF08A8007C04210840002893
:101440007ED00027002F7CD1952112A800F0CAF988
:1014500000280CD094A284480168032001F030FFDA
:1014600075480068401C7449086001209DE70CA97C
:1014700012A800F0F5FA00280CD090A27A48016872
:10148000032001F01DFF6C480068401C6A49086099
:1014900001208AE708A8037C8CA273480168032016
:1014A00001F00EFF08A8007C04210840002859D054
:1014B00000200B900B980028C5D1972113A800F0AD
:1014C00091F900280CD087A267480168032001F039
:1014D000F7FE59480068401C57490860012064E73E
:1014E0000CA913A800F0F7FA00280CD082A25E48DD
:1014F0000168032001F0E4FE4F480068401C4E499B
:101500000860012051E708A8037C7FA256480168C3
:10151000032001F0D5FE08A8007C04210840002823
:1015200091D110A8C17B827B437B007B06930792FD
:101530000891059010A8C17A827A437AC07901E0B7
:1015400029E077E0029303920491019010A880793A
:10155000009010A84379724A43480168032001F0C3
:10156000AFFE67E001200B9010A8C17A827A437A1F
:10157000007A039304920591029010A8C1798079B2
:101580000191009010A8437966A2374801680320B2
:1015900001F096FE4EE0012700202749086010A9BF
:1015A000C879000689790904084310A94979090214
:1015B000084310A9097908430A9000241AE00A2177
:1015C0000A98FEF7CDFD0D460A210A98FEF7C8FDE0
:1015D0000A900A210A98FEF7C3FD0E460A210A98CE
:1015E000FEF7BEFD0A90300140190421091B0DAA27
:1015F0005054641C052CE2DB08A8007D11490870DA
:1016000008A8407D487008A8807D887008A8C07D23
:10161000C87008A8007E08710120084908700020E1
:1016200007490870052207494C48FEF7AFFD012025
:101630004A4948710020B8E6280100203201002004
:10164000330100202D0100205265717565737433DC
:101650003A6F6B2020415451413A25303278202591
:101660003032780D0A00000024010020416E7469B8
:10167000636F6C6C313A6661696C0D0A00000000A2
:1016800053656C656374313A6661696C0D0A0000DC
:1016900053656C656374313A6F6B202053414B3155
:1016A0003A253032780D0A00416E7469636F6C6CB4
:1016B000323A6661696C0D0A0000000053656C6582
:1016C0006374323A6661696C0D0A000053656C659B
:1016D0006374323A6F6B202053414B323A253032DB
:1016E000780D0A00416E7469636F6C6C333A666101
:1016F000696C0D0A0000000053656C656374333A31
:101700006661696C0D0A000053656C656374333A59
:101710006F6B202053414B333A253032780D0A004D
:10172000C43C0008416E7469636F6C6C323A6F6B35
:1017300020205549443A253032782025303278200F
:101740002530327820253032782025303278202517
:1017500030327820253032780D0A0000E700002072
:1017600010B508210846FFF7E5F800211220FFF721
:101770000BF900211320FFF707F926212420FFF79A
:1017800003F968212620FFF7FFF880212A20FFF7C0
:10179000FBF8A9212B20FFF7F7F803212C20FFF7F6
:1017A000F3F8E8212D20FFF7EFF840211520FFF78F
:1017B000EBF83D211120FFF7E7F800210120FFF7AA
:1017C000E3F800F001F810BD10B51420FFF7C2F8DF
:1017D0000446A007800F002803D103211420FFF73F
:1017E000EDF810BDF0B589B005460E46002708217A
:1017F0000846FFF79FF800210D20FFF7C5F880216C
:101800000E20FFF797F8684606722021417207A85C
:1018100002AB022202A900900C2000F01DF80890F3
:101820000898002811D1002407E002A8005D28557F
:1018300002A8005D4740601CC4B2042CF5DB02A87E
:10184000005DB84201D00220089080210E20FFF7F1
:10185000B5F8089809B0F0BDFFB583B00646022080
:1018600002900020019000900C2E06D00E2E09D17F
:10187000122001901020009005E077200190302088
:10188000009000E000BF00BF80210420FFF752F865
:1018900000210120FFF778F880210A20FFF78EF859
:1018A000002505E00498415D0920FFF76DF86D1CE7
:1018B00005988542F6D331460120FFF765F80C2ED6
:1018C00003D180210D20FFF779F84B25ED0000BFF3
:1018D0000420FFF73FF804466D1E002D07D0E007F7
:1018E000C00F002803D1009820400028F0D08021AC
:1018F0000D20FFF71FF8002D3ED00620FFF72AF835
:10190000234908700620FFF725F81B21084000280E
:1019100030D1029001982040C007C00F002801D0AC
:10192000012002900C2E27D10A20FFF713F804465D
:101930000C20FFF70FF847077F0F002F05D0601E20
:10194000C000C1190C98016002E0E1000C98016030
:10195000002C00D10124122C00DD1224002506E009
:101960000920FEF7F7FF0146069841556D1CA54278
:10197000F6D301E00220029080210C20FFF71EF830
:1019800000210120FFF700F8029807B0F0BD000029
:101990002C01002070B588B005460C460821084689
:1019A000FEF7C8FF07210D20FEF7EEFF03211420EC
:1019B000FFF704F86846057207A802AB012202A9E6
:1019C00000900C20FFF748FF0646002E09D107982B
:1019D000102806D16846007A20706846407A607008
:1019E00000E00226304608B070BDF0B587B005466D
:1019F0000F46932168460171702141710021817267
:101A000000240BE0295D01AAA01C11546946887AC4
:101A1000295D484069468872601CC4B2042CF1DB21
:101A200002AA0332072101A8FEF7B6FE08210846E4
:101A3000FEF780FF06A801AB092201A900900C2047
:101A4000FFF70AFF0646002E06D10698182803D194
:101A500068460079387000E00226304607B0F0BDD5
:101A6000F0B587B005460F46952168460171702193
:101A700041710021817200240BE0295D01AAA01CA4
:101A800011546946887A295D484069468872601C0D
:101A9000C4B2042CF1DB02AA0332072101A8FEF72D
:101AA0007BFE08210846FEF745FF06A801AB092288
:101AB00001A900900C20FFF7CFFE0646002E06D1AC
:101AC0000698182803D168460079387000E002268D
:101AD000304607B0F0BDF0B587B005460F469521FA
:101AE00068460171702141710021817200240BE070
:101AF000295D01AAA01C11546946887A295D4840D5
:101B000069468872601CC4B2042CF1DB02AA03325D
:101B1000072101A8FEF740FE08210846FEF70AFF4C
:101B200006A801AB092201A900900C20FFF794FE42
:101B30000646002E06D10698182803D1684600797B
:101B4000387000E00226304607B0F0BD7047000054
:101B5000014600BF074880680F2212021040104063
:101B6000000A8000044A105CC206D20E0846D0402B
:101B700070470000001002406C390008014600BFA9
:101B800006488068072212031040000B8000044AB8
:101B9000105CC206D20E0846D040704700100240CA
:101BA000AC39000870B5FFF799F800280FD0082865
:101BB00004D0182804D0202808D104E0114C1EE0DD
:101BC0000124E40300BF0124E40300BF00BF00BF01
:101BD0000D4800680721C9020840C10A0120884059
:101BE000054609494968072252031140490B8900FB
:101BF000064A50582946FEF7B3FA044600BF00BF14
:101C0000204670BD00366E0100100240CC3900083D
:101C100010B56548C088401C6349C88008464089A3
:101C200000280FD008464089401E48810846408958
:101C3000002807D1052000070069C007C00F002851
:101C400001D1C880AEE05849CA885849087B411C78
:101C5000CBB256490B734300FF39F539CA52002401
:101C600018E0E0005249085A4F49C988884210DA02
:101C70004D48C088E1004E4A89184988884208DAF0
:101C80004C494948FEF79BFA47494C7101200871BD
:101C900010BD641C022CE4D343480079002830D0E6
:101CA00041484079C0004249401800793E49C988FE
:101CB000884226DA3C48C0883B494979C9003C4AF9
:101CC0008918497988421CDA374BD978CB175B0FD2
:101CD0005B18DB10344C1A192346D878C3175B0FF6
:101CE0001B18DB10DB00C31A0724E41A0123A340EE
:101CF0001478234313702C48C078401C2A49C870BC
:101D00003DE029480079002830D027484079C000BC
:101D10002749401880792449C988884226DA224810
:101D2000C08821494979C900214A8918C97988425E
:101D30001CDA1D4BD978CB175B0F5B18DB101A4CE4
:101D40001A192346D878C3175B0F1B18DB10DB006A
:101D5000C31A0724E41A0123A34014789C43147087
:101D60001148C078401C1049C87008E00E4800793E
:101D7000002804D00F490C48FEF721FA88E70A48EA
:101D8000C07818280ED101200B49C8700648407948
:101D90000871032204490848FEF7F8F9054902488A
:101DA000FEF70DFA00BF73E7D0020020D004002038
:101DB000503A00080E020000DC000020F8B505468D
:101DC00000268024002700BF29E08021052000078D
:101DD000FEF72DFF28462040002805D04021052091
:101DE0000007FEF728FF04E0402105200007FEF76A
:101DF0001EFF802105200007FEF71DFF2020052182
:101E0000090709690140814201D1012100E0002157
:101E1000012902D130462043064664107F1C082F5A
:101E2000D3DB3046F8BD70470B480068401C0A49B8
:101E300008600A48407800280CD008484078401CC8
:101E40000649487008464078052803DB00204870A2
:101E50000120887070470000D0000020CC010020D5
:101E600010B500BF27480068FF210131084325490C
:101E7000086000BF2449098AC804C00C0122D203AB
:101E8000104320494968090C090401431D4A516067
:101E900000BF00BF00BF1B48006801218902084045
:101EA000800A0028F6D00020164989680F22120205
:101EB00091430143134A916000BF00BF11468968F6
:101EC000C908C9000143916000BF00BF00BF0D48B1
:101ED0008068382108400028F8D100BF0949896886
:101EE0000722120391430143064A916000BF07484D
:101EF000FEF7E0FE0548FEF707FF032004490861EE
:101F000010BD000000100240000FFF1F00366E01E0
:101F100000E000E007484068000C0004012149038C
:101F2000401805494968084302494860C803034905
:101F30008860704700100240000FFF1F00ED00E0B6
:101F400000200B4908800B4908800B4908800B4989
:101F500008800BE0064800F027F8064800F092F8E9
:101F6000054800F0B3F8054800F0F0F8F2E700008B
:101F7000F4000020040100200C010020FC000020DF
:101F800010B500BF0120C0430549086100BF0548E6
:101F90000068401C03490860FFF73AFE10BD0000CE
:101FA00000040040D400002030B587B004462088EB
:101FB000002802D02F284BD104E048E000BF2F209A
:101FC000208000BF24484079002801D107B030BDEF
:101FD00000BF214800792049C9781F4A92781E4BDA
:101FE0005B7800930192029103901B4803781BA237
:101FF00023480168032001F063F901216846017458
:10200000052141741448017868468174124841786A
:102010006846C17410488178684601750E48C178D9
:10202000684641750C48017968468175072104A806
:1020300001F0B4F9054629126846C17505760921F3
:1020400004A801F097FA06210348FEF7B8F8B5E7AF
:10205000002020800220B9E7E100002049642063CD
:102060006172643A2530327820253032782025306C
:102070003278202530327820253032780D0A000061
:102080001401002010B504462088002802D04D28F5
:1020900014D104E011E000BF4D20208000BF0948AA
:1020A0008078002800D110BD00BF01F07FFA002029
:1020B0000449887000210448C170ECE700202080AA
:1020C0000220F0E7CC010020CC02002010B504462D
:1020D0002088002802D069282ED122E02BE0184960
:1020E00008680968491C164B19600A21FEF738F880
:1020F000002907D101F0F2FB00BF12481249086025
:1021000000BF00BFFEF77EFB0D480068401C0C4975
:10211000086000BF01F05EF9606000BF69202080A8
:1021200000BF01F057F96168401A642801D200200D
:1021300010BD00BF00BFD2E7002020800220F7E7DB
:1021400018010020AAAA0000003000407FB5044614
:102150002088002802D074284AD104E047E000BF5C
:102160007420208000BF2448C078002801D104B02A
:1021700070BD00BF2048007900280ED01E4880782E
:102180001D494978009101901B4803781BA2234800
:102190000168032001F094F80DE017488078164993
:1021A0004978009101901448037815A21B480168F2
:1021B000032001F085F803216846017241720E4840
:1021C0000178684681720C4841786846C1720A48B5
:1021D000817868460173052102A801F0DFF8054601
:1021E000291268464173857300200349C870B6E719
:1021F000002020800220BAE7DC0000206E657720F6
:1022000062656C6C2049443A2530327820253032A2
:102210007820253032780D0A0000000014010020DB
:102220000A4800682021084000280ED0074840686E
:10223000C1B20748C278C078401CC3B20448C3701A
:10224000FD38815401200349487070470044004024
:10225000CC020020CC01002010B503460C461946E4
:10226000E21DF93200BF49005200FF20013010404A
:10227000002800D0491C012000040840002801D09B
:10228000044841400120000410400028EBD088B2EF
:1022900010BD000021100000F8B505460E460024D0
:1022A000AF1905E029786D1CA0B2FFF7D5FF0446F1
:1022B000BD42F7D3A0B20021FFF7CEFF044620466F
:1022C0000021FFF7C9FF04462046F8BD0FB410B542
:1022D00003A9044B044A029800F000F910BC08BCA2
:1022E00004B01847152F00084801002010B5024B14
:1022F000024A00F0F3F810BD152F00084801002035
:102300002021020C01D010211046020A01D01046F3
:102310000839020901D01046091F820801D0104671
:10232000891E420801D0881E7047081A704730B4D1
:102330007446641E2578641CAB4204D3635D5B0065
:10234000E31830BC18471D46F8E702E008C8121F22
:1023500008C1002AFAD170477047002001E001C18E
:10236000121F002AFBD17047F0B51FB486B0099840
:10237000089A030D0021024314D05148514A1818FD
:10238000504305141198012810981AD0281A401C9F
:1023900000264D4F4D49009601910490002812DA15
:1023A000444211E01198012449A3012801D1109859
:1023B000C1430698119A84600360C26041600BB00B
:1023C000F0BD4042E4E70446210500203F4A001CDE
:1023D00051410391029012E0E00707D032463B469C
:1023E00001990098FDF7DAFF0191009032463B46D3
:1023F00010461946FDF7D2FF06460F466410002C22
:10240000EAD10498039B0028029A0999089806DAF1
:10241000FDF7C4FF019B009AFDF7C0FF05E0FEF742
:1024200025F8019B009AFEF721F804460E4600228B
:10243000284BFEF7B3F803D80020C043014607E05D
:102440000022254B20463146FDF7F4FEFEF786F8C4
:10245000102409E0002C0ADB0A220023FDF7BAFE53
:10246000079B30321A55641E02460A43F2D11122EC
:10247000641C079B121B1C19119B012B03D0012309
:1024800008430ED10AE0084304D011201090002028
:10249000119077E71098151A6D1E0BE01098824284
:1024A00002DD00236D1C03E0824201DA00236D1E71
:1024B000002BEED0069811998260C16030C07EE793
:1024C00001FCFFFF104D0000000014400000F03F31
:1024D000300000000000F0430000E03FFFB597B07F
:1024E000064600251BE2252876D100242746F74919
:1024F000049400E00443761C32780120203A904096
:102500000842F7D130782A280ED0022230780146CE
:102510003039092916D804990A235943303940180B
:102520001443761C0490F1E7189802C8049118909F
:10253000002904DA012040030443484204900220A9
:102540000443761C30782E2814D10420044370787C
:10255000761C2A2809D11898761C80C8189009E0A2
:102560000A214F43303FC719761C30780146303975
:102570000929F5D930786C2810D006DC4C281AD0FF
:1025800068280ED06A2817D104E0742813D07A285E
:1025900012D110E00120400504430CE0012109059F
:1025A00001E0032109050C437178814203D1012028
:1025B00000052418761C761C307866280BD013DCB6
:1025C00058287DD009DC00287BD04528F6D0462845
:1025D000F4D047281AD1A9E118E0632835D064283F
:1025E00070D0652812D1A1E170286CD008DC672872
:1025F000F1D069287DD06E280DD06F2806D1BCE0BF
:1026000073282ED0752873D0782859D01A9A199922
:1026100090476D1C82E16002400F022809D0032818
:102620000DD00428189801680DD00D60001D189079
:1026300074E11898EA1701680D604A60F6E7189887
:1026400001680D80F2E70D70F0E718986A4601788E
:102650001172001D18900020507202A800900120F5
:1026600005E0189802C8189000200091C043610747
:102670000ED5002101E00199491C0191B94213DAFC
:102680008142F8DB019A0099895C0029F3D10BE0C3
:10269000002101E00199491C01918142FADB019A74
:1026A0000099895C0029F5D1019904981A9B471A71
:1026B00021463846199A00F099FA4019019903E029
:1026C00051E030E115E050E0451807E0009800992E
:1026D0000078491C00911A9A199990470198401E58
:1026E0000190401CF2D1214638461A9B199A12E1FA
:1026F00037E00A200021009001916002410F022979
:1027000007D0189A01CA1892C2179446032908D014
:102710000AE01898C01DC108C90005C9189194465F
:1027200007E000B2C2179446042902D140B2C11793
:102730008C4600226146944506DA0A460021404252
:1027400091418C462D2102E0210504D52B216A46BA
:102750001173012103E0E10701D02021F7E7029185
:1027600056E00A200AE0102008E010200090002126
:10277000042004430191082703E00820002101916F
:1027800000906002410F022907D0189A01CA1892DE
:1027900000229446032908D008E01898C01DC108FB
:1027A000C90005C91891944603E080B2042900D1FC
:1027B000C0B20021029121072AD531780D917029EC
:1027C00006D0009A1021019B4A401A4305D00EE022
:1027D00040216A461173012108E06146014306D099
:1027E00030216A4611730D99517302210291009AAA
:1027F0000821019B4A401A430AD16146014301D195
:10280000610705D530216A46117301217F1E0291AF
:102810003178582904D02EA10E910DA90D910DE00B
:1028200030A1F9E76146019B009AFDF7D3FC0E9BAE
:102830008C469B5C0D9A521E0D92137061460143AB
:10284000F0D10D9805A9081A20300190600703D532
:1028500001200004844300E001270198874201DD44
:10286000381A00E0002001990090411802980918D8
:102870000498401A0490E00306D421461A9B199A42
:10288000049800F0B3F94519002706E003A81A9A46
:10289000C05D199990476D1C7F1C02988742F5DB3B
:1028A000E0030CD521461A9B199A049800F09EF972
:1028B000451904E01A9A3020199990476D1C009927
:1028C000481E00900029F5DC1FE0000009280100E7
:1028D0003031323334353637383961626364656696
:1028E0000000000030313233343536373839414258
:1028F00043444546000000000D980D990078491C9E
:102900000D911A9A199990476D1C0199481E0190D2
:102910000029F1DC4DE100F059F94519761C3078B9
:10292000002800D0DFE528461BB0F0BD600700D4CA
:1029300006271898C01DC108C90048680A680831F0
:10294000C30FDB071891190001D09CA108E02105F5
:1029500001D59BA104E0E10701D09AA100E09AA172
:102960004300109130785B0865280CD006DC4528C0
:1029700009D046281DD0472841D141E0662818D00B
:1029800067283CD13CE00021112F01DB112000E041
:10299000781C0191009008A911A8FFF7E5FC139994
:1029A00005910021119A15927F1C129801970091B0
:1029B00050E00120C00703900120019008A9009772
:1029C00011A8FFF7D1FC139A149905920022119BCC
:1029D000009212981593059A0192002901D0104691
:1029E00002E0791C40180190381A01D5019804E0E2
:1029F0004042401E0090781C0190C01B029043E0B2
:102A0000012F00DA01270021112F01DD112000E044
:102A100038460191009008A911A8FFF7A5FC139969
:102A20000591119A002112981592009101972107A2
:102A30000CD40599B94201DB019900E0019101290B
:102A400004DD159A491E515C302906D0B84201DADE
:102A5000011D05DA0121029115E00199491EEDE7FA
:102A6000002805DC0099411800910199091A03E03A
:102A7000019A411C914200DD01910099401A401CCD
:102A800002900120C0070390200706D40299019804
:102A9000814202DB0020C043029000206946C877D3
:102AA00007AF012103980337C907884224D00220C9
:102AB00011902B201290039800280CDA40420390CA
:102AC0002D20129007E00A210398FDF749FB3031D1
:102AD0007F1E039039701199481E11900029F2DC75
:102AE00003980028EFD1791E1298087030782021C1
:102AF00008404530BF1E387006A8C01BC01D03909B
:102B000010980078002800D00120019941180298FF
:102B1000C0170918039809180498401A401E049019
:102B2000E00306D421461A9B199A049800F05EF837
:102B3000451910980078002803D01A9A19999047DF
:102B40006D1CE00324D521461A9B199A049800F0C5
:102B50004DF845191CE00098002807DB00990598FE
:102B6000884203DD1598405C199901E019993020DD
:102B70001A9A904700986D1C401C00900298401EC5
:102B80000290002804D11A9A2E20199990476D1CA2
:102B90000199481E01900029DDDC05E038781A9A79
:102BA0007F1C199990476D1C0399481E03900029BA
:102BB000F4DC21461A9B199A0498ACE62D0000001B
:102BC0002B0000002000000000000000F8B50446C3
:102BD00000251E461746880404D405E03946202007
:102BE000B0476D1C641EF9D52846F8BDFFB50446F4
:102BF000002581B01E46C80301D5302700E02027FC
:102C0000880404D505E038460399B0476D1C641E5E
:102C1000F9D5284605B0F0BD10B504210748FEF7E8
:102C200006F81420FEF7E2F904210448FEF703F841
:102C30000A20FEF7DBF9FEF793FD10BD00040050FB
:102C4000F0B5024600213FE00023002019E08E008D
:102C50008E19361835460935EE17760F7619F610A7
:102C6000965D8F00CF193F183C460934E7177F0F58
:102C70003F19FF10FF00E71B3E41F607F60FF31860
:102C8000401C0428E3DB8D004D192C460D34E5175C
:102C90006D0F2D19ED10565D8D004D1928460D3024
:102CA000C5176D0F2D18ED10ED00451B2E41F507D2
:102CB000ED0FEB181846DC0F2418641064001C1B81
:102CC00001D00020F0BD491C0A29BDDB00213AE0FB
:102CD0000023002019E0860086197618354609354C
:102CE000EE17760F7619F610965D8700C7197F18D4
:102CF0003C460934E7177F0F3F19FF10FF00E71B21
:102D00003E41F607F60FF318401C0A28E3DB0C4699
:102D10003B34E5176D0F2D19ED10555D2046C61794
:102D2000760F3618F610F600861B3541ED07ED0FCD
:102D3000EB181846DC0F2418641064001C1B01D02B
:102D40000020BFE7491C0429C2DB00203AE0002133
:102D500035E0850045196D182C460934E5176D0FCF
:102D60002D19ED10555D8600861976183346093306
:102D7000DE17760FF618F610F6009F1B0126BE40F0
:102D80003540002D1AD085006B18DD176D0FED183A
:102D9000ED100E4E755D86007418E617760F361925
:102DA000F610F600A71B0126BE40354386007318B7
:102DB000DE17760FF618F610044FBD55491C04298E
:102DC000C7DB401C0A28C2DB01207BE7E1000020B2
:102DD00010B50C4840690121C907084309494861F9
:102DE00008464069C00FC007002808D1064B07A25B
:102DF0000C480168032000F063FA022010BD002097
:102E0000FCE70000002002401F3A000825732C2038
:102E1000666C617368206C6F636B206661696C65BA
:102E2000640D0A00C8000020F8B505460F46144698
:102E300000F03AF8002800D0F8BD3E461748854219
:102E400004D228191649884200D9F5E71DE08021EF
:102E50001448FDF7B4F9802C0BD380223146114879
:102E6000FDF794F939462846FDF736F9803C80365F
:102E70000BE0002C09D0224631460A48FDF786F9BE
:102E800039462846FDF728F90024002CDFD1FFF74A
:102E90009FFF002800D0CFE700BFCDE700800008EB
:102EA000000001084C01002010B50E484069C00F19
:102EB000C007002813D00C480A4988600B48886076
:102EC00008464069C00FC007002808D0084B09A277
:102ED0000F480168032000F0F3F9012010BD002025
:102EE000FCE700000020024023016745AB89EFCDDD
:102EF000123A000825732C20666C61736820756E89
:102F00006C6F636B206661696C65640D0A0000007C
:102F1000C80000200A46C1B2084B596000BF00BF7C
:102F200000BF064909684023194089090029F7D0E4
:102F300000BFD943014B196000BF704700440040F7
:102F400005200007006910210840002801D000205A
:102F500070470120FCE700001CB50120FDF79CFE36
:102F60000220FDF799FE0022202105200007FDF731
:102F700064FE0122402105200007FDF75EFE0322CA
:102F8000402105200007FDF77AFE002240210520A0
:102F90000007FDF75FFE0122802105200007FDF7F5
:102FA0004CFE0322802105200007FDF768FE002269
:102FB000802105200007FDF74DFE0122022159481E
:102FC000FDF73BFE032202215648FDF758FE002282
:102FD00002215448FDF73EFE02215248FDF729FE2A
:102FE000012204214F48FDF728FE032204214D4809
:102FF000FDF745FE002204214A48FDF72BFE04217F
:103000004848FDF716FE0022102105200007FDF7B5
:1030100014FE0122102105200007FDF723FE0020E9
:10302000009001901020009001216846017100215C
:10303000417103218171FDF715FD00210720FDF786
:10304000FBFF0720FDF7EEFF012204213548FDF7C5
:10305000F4FD032204213348FDF711FE0022042170
:103060003048FDF7F7FD04212E48FDF7E2FD02226E
:10307000082105200007FDF7E0FD032208210520B7
:103080000007FDF7FCFD0122082105200007FDF7E0
:10309000E9FD08200D2105221207136A024642436A
:1030A000424342431401A41A1A46A243034643432F
:1030B000434343434B431A4305231B071A6200BF94
:1030C000012208211748FDF7B8FD03220821154801
:1030D000FDF7D5FD002208211248FDF7BBFD0820B1
:1030E0001049886200BF0022012105200007FDF77A
:1030F000A4FD0122114605200007FDF7B3FD0120C4
:103100000090012168460171002141710321817104
:10311000FDF7A8FC00210520FDF78EFF0520FDF737
:1031200081FF1CBD0004005010B561490968CAB296
:103130006049087D411CCBB25E490B75EC390A54DD
:1031400008461438C07C002810D159480068082867
:103150000BD3574800680D2807D8FFF7F1FE002869
:1031600003D001205449C87408708CE05248C07CD8
:10317000012821D14E480068032817D34C48006825
:10318000072813D84C48807C401C4B49887408465B
:10319000807C102877D10220C87400208874FF201A
:1031A000087001204870092008746CE0FF21163176
:1031B0004148FDF704F866E03F48C07C022862D130
:1031C0003B480068082825D3394800680D2821D8D5
:1031D000FFF7B6FE384948740B46197CCB175B0FD6
:1031E0005B18DB10344C1A192346187CC3175B0F8D
:1031F0001B18DB10DB00C41A2F4B5B7CA340147838
:10320000234313702C48007C401C2B490874002079
:10321000887438E02648006803282FD324480068C3
:1032200007282BD82448807C401C23498874887C3C
:10323000C10F091849104900411A24D1FFF780FE37
:103240001D4948740B46197CCB175B0F5B18DB10CC
:10325000194C1A192346187CC3175B0F1B18DB1077
:10326000DB00C41A144B5B7CA34014782343137017
:103270001148007C401C1049087404E0FF211631FD
:103280000D48FCF79CFF0C48007C40280CD10A48F4
:10329000FFF7D6FC002802D0012008494871FF2121
:1032A00016310548FCF78BFF00200149086010BD6E
:1032B000D4000020DE050020DE040020E100002014
:1032C0000FB4F8B504460D4609A8009000F082F846
:1032D0000646A000084A11582B46324607A0FEF7C2
:1032E000F5FF00990898FFF701F800200090F8BC5E
:1032F00008BC04B0184700003401002025732028C2
:10330000256C75292025733A2000000010B5402156
:1033100005200007FDF78FFC02211048FDF78BFC0C
:10332000802105200007FDF786FC04210B48FDF7EE
:1033300082FC04210948FDF77AFC6420FDF756FE63
:1033400004210648FDF777FC6420FDF74FFEFEF7E9
:1033500007FA6420FDF74AFE10BD0000000400508B
:1033600010B5FEF77DFDFFF7F7FD00F0A5F800F0C2
:1033700037F8FFF7CBFF05A2074801680320FFF7E6
:103380009FFFFEF7DDFD002010BD00006170702082
:1033900072756E0D0A000000C400002070B5024670
:1033A0000B46FF25FF2408E01178521C69400748AE
:1033B000405C604005460648445C18465E1EB3B259
:1033C0000028F1D12002284370BD00009D3A00087A
:1033D0009D3B00080148006870470000D0000020B5
:1033E00000B58FB00120C0023049096801432F4A5F
:1033F0001160114609680140019100BF00BF14210E
:103400000AA8FCF7DCFE00200D900B900021684616
:103410000185C0200C9008A8017602A8FDF7FCFCED
:10342000602002900020069007900890099060208C
:10343000059002AA01211E48FDF7BEFC0AA91C48FE
:10344000FDF76EFC0120C003194940314860682037
:10345000174988610846FDF75DFC012014490862A0
:103460000220FDF7BBFA00200D900B902721684643
:1034700001851C200C90002108A801760AA90D489E
:10348000FDF74EFC00BF0B48C06801210843094905
:10349000C86000BF0846FDF73DFC1020FDF7C2FDE7
:1034A00000211020FDF7C8FD0FB000BD4010024004
:1034B000002C01400004004000B58DB00120FDF754
:1034C000EBFB01204004FDF789FA0420079002205D
:1034D00008900320099000200A9001200B900420FE
:1034E0000C9007A905200007FDF724FB0220079098
:1034F00009200C9007A905200007FDF71BFB002100
:103500001C20FDF799FD1C20FDF78CFDE120000338
:10351000009000200190029003900C200490002065
:103520000590069069461248FDF780FC00BF1048E0
:1035300000690121C90288430D49086108464069B4
:10354000082188430A49486100BF00BF0846C06897
:10355000202108430649C86000BF00BF0846C06874
:10356000491408430249C86000BF0DB000BD000007
:103570000044004010B5024600200BE0135C0A4CEA
:10358000636000BF084B1B6880242340002BF9D0E8
:10359000431CD8B28842F1DB00BF034800684023D7
:1035A00018400028F9D010BD004400401CB5174851
:1035B000006800280DD100BF08E01549095C154AD4
:1035C000125C914200D01CBD411CC8B20828F4DB3B
:1035D000F9E70E480068002816D00D48FD30C17884
:1035E0006B4601AAFD3800F017F804460520FDF7E8
:1035F000FDFC68460088002805DD68460088C1B2E9
:1036000001A8FFF7B7FF00BF00BFDCE7F40500200B
:10361000CF0100201C010020F8B5044615461F46C6
:103620000020A0498863207818280AD160781828DB
:1036300007D13C219B48FCF7C2FD00209949086056
:10364000F8BD984800680300FEF771FE07F8050E04
:1036500092ECF8F7F800432028700120388002200F
:10366000904908600120EBE72078012805D16078B7
:10367000002802D1A078FF2803D000203880401E07
:10368000DEE70026884B89A28C4801680320FFF7FB
:1036900017FE0EE0F01C215C8248001D8155F01CD5
:1036A000235C87A2854801680320FFF709FE701C90
:1036B00086B2F01C205C002801D0802EEADB802E30
:1036C00002DB0020C043BBE700217648001D815586
:1036D0007CA27A4801680320FFF7F2FD301D80B21A
:1036E000009000260CE06F48C0690A214843009909
:1036F0008919615C303940186A49C861701C86B20A
:1037000000988019205C302806DB00988019205C26
:103710003A2801DA0A2EE6DB6248808B83B26AA27D
:10372000664801680320FFF7CBFD5E48C0697F3023
:10373000C0095C4948620846406A01214902884242
:103740000BD9182028706870022038803C21554819
:10375000FCF735FD0020C04372E7062028704320A7
:1037600068700220388003204E490860012067E716
:103770002078012806D161784A48008C401CC0B2EC
:1037800081421BD061784748006A401C814204D2C4
:10379000062028700120388008E018202870687002
:1037A000022038803C213F48FCF709FD3D48406B32
:1037B000401C3C4948630020C04341E78221E01C93
:1037C000FEF76AFD002805D01520287001203880FA
:1037D000801E35E73348406B401C32494863096A14
:1037E000C9013D4A88188022E11CFFF71DFB2D48C6
:1037F000006A401C2B4908620846006A496A8842F0
:1038000007D306202870012038800420254908604D
:1038100003E00620287001203880002021494863F9
:1038200001200DE72078042809D01E48406B401C79
:103830001C4948630020C04302E70AE02BE0062051
:1038400028704320687002203880062015490860DF
:1038500024E02078012805D16078002802D1A078E2
:10386000FF280BD015202870012038800D48406BB0
:10387000401C0C4948630020C043E1E63C21094854
:10388000FCF79DFC062028700120388000200549A7
:1038900008600220D4E60020C043D1E600BF00202B
:1038A000CEE60000F4050020863A000825732C209F
:1038B00046696C65206E616D653A0000F00000207D
:1038C000256300000D0A00004669726D53697A6530
:1038D0003A2564200D0A00000080000808B5204841
:1038E000006800283BD01E48806B401C1C49886340
:1038F0000846806B03280AD90846406B401C486381
:1039000015206946087001216846FFF733FE144808
:10391000406B052822DD3C211148FCF750FC1821A2
:103920006846017041700221FFF724FE00BF00BF0E
:1039300000BF00BF00BFBFF34F8F00BF00BF00BF7D
:1039400008480949C86000BF00BF00BFBFF34F8FE0
:1039500000BF00BF00BF00BF00BFFDE700BF08BD44
:10396000F40500200400FA0500ED00E0000000006E
:103970000000000000000000000000000000000047
:103980000000000000000000000000000100000036
:103990000200000003000000040000000600000018
:1039A00007000000080000000900000000000000FF
:1039B0000000000000000000000000000100000006
:1039C00002000000030000000400000000093D00A8
:1039D00000127A000024F4004086510100366E0186
:1039E00000093D0000093D0000093D00081C3000B1
:1039F00000000004040400000800000008000008A3
:103A00000000000800020406080A0C00010203047A
:103A10000506666C6173685F756E6C6F636B00663C
:103A20006C6173685F6C6F636B00081C3000000092
:103A30000004040400000800000008000008000062
:103A4000000800020406080A0C000102030405062F
:103A5000BA00DA00030A101735015501080F1D24BA
:103A6000081C3000000000040404000008000000EE
:103A7000080000080000000800020406080A0C0004
:103A8000010203040506796D6F64656D5F70616303
:103A90006B65745F616E616C797369730000C181DD
:103AA0004001C0804101C0804100C1814001C0800F
:103AB0004100C1814000C1814001C0804101C080FE
:103AC0004100C1814000C1814001C0804100C181ED
:103AD0004001C0804101C0804100C1814001C080DF
:103AE0004100C1814000C1814001C0804100C181CD
:103AF0004001C0804101C0804100C1814000C181BE
:103B00004001C0804101C0804100C1814001C080AE
:103B10004100C1814000C1814001C0804101C0809D
:103B20004100C1814000C1814001C0804100C1818C
:103B30004001C0804101C0804100C1814000C1817D
:103B40004001C0804101C0804100C1814001C0806E
:103B50004100C1814000C1814001C0804100C1815C
:103B60004001C0804101C0804100C1814001C0804E
:103B70004100C1814000C1814001C0804101C0803D
:103B80004100C1814000C1814001C0804100C1812C
:103B90004001C0804101C0804100C1814000C0C1DE
:103BA00001C30302C2C60607C705C5C404CC0C0D79
:103BB000CD0FCFCE0E0ACACB0BC90908C8D8181929
:103BC000D91BDBDA1A1EDEDF1FDD1D1CDC14D4D589
:103BD00015D71716D6D21213D311D1D010F0303119
:103BE000F133F3F23236F6F737F53534F43CFCFDB9
:103BF0003DFF3F3EFEFA3A3BFB39F9F83828E8E949
:103C000029EB2B2AEAEE2E2FEF2DEDEC2CE42425C8
:103C1000E527E7E62622E2E323E12120E0A0606138
:103C2000A163A3A26266A6A767A56564A46CACADF8
:103C30006DAF6F6EAEAA6A6BAB69A9A86878B8B9A8
:103C400079BB7B7ABABE7E7FBF7DBDBC7CB4747508
:103C5000B577B7B67672B2B373B17170B050909158
:103C6000519353529296565797559594549C5C5D38
:103C70009D5F9F9E5E5A9A9B5B99595898884849C8
:103C8000894B8B8A4A4E8E8F4F8D4D4C8C44848548
:103C90004587474686824243834181804000000039
:103CA0006D61696E00000000666C6173682064726B
:103CB0006976657200000000796D6F64656D0000C3
:103CC00061707000416E7469636F6C6C333A6F6B36
:103CD00020205549443A253032782025303278204A
:103CE0002530327820253032782025303278202552
:103CF0003032782025303278202530327820253037
:103D0000327820253032780D0A000000636172633A
:103D1000206D310044000000450000004900000013
:103D20004E00000057000000483D00080000002041
:103D30004C0100000E0700087C3D00084C010020EB
:103D4000E40800005A23000801C113127A13A03CB2
:103D50001B08A80401240A21B8285AC024C80BFF54
:103D60000A50A55A3826FE0C3D341A20101A1804A1
:0C3D70001A24041A1C045A14200000003D
:04000005080000C12E
:00000001FF
