:020000040800F2
:1000000008090020450100083D100008CD0800083F
:1000100000000000000000000000000000000000E0
:10002000000000000000000000000000A71D000804
:100030000000000000000000251B0008A91D0008AA
:100040005701000857010008570100085701000830
:10005000570100085D080008570100087D080008E6
:1000600000000000570100085701000800000000D0
:100070005701000857010008570100080000000060
:10008000011F000857010008000000005701000888
:100090000000000057010008570100085701000840
:1000A0000000000057010008000000005701000890
:1000B00059210008000000000000000000000000BE
:1000C0000448854600F07EFA004800471107000802
:1000D000C046C04608090020F3B581B00024019E47
:1000E000029F642000F0D6FB1548406901210843B7
:1000F0001349486100BFEFF31080054672B60EE069
:10010000386830603F1D361D601CC4B21F2C06D1FC
:100110000B4840690121C904084309494861202C62
:10012000EED3642000F0B6FB05484069400840006B
:100130000349486100BF85F3108800BFFEBD000081
:10014000002002400448804704480047FEE7FEE7DD
:10015000FEE7FEE7FEE7FEE7951E0008C100000887
:1001600030B50B46014600202022012409E00D464F
:10017000D5409D4205D31D469540491B25469540D7
:1001800040191546521E002DF1DC30BD03460B43CD
:100190009B0703D009E008C9121F08C0042AFAD23D
:1001A00003E00B780370401C491C521EF9D27047C3
:1001B000D2B201E00270401C491EFBD270470022FF
:1001C000F6E710B513460A4604461946FFF7F0FF56
:1001D000204610BDF0B51FB40646002082B005468B
:1001E0004024019100901BE0019922460F463046C1
:1001F00000F00AFA049A059B801A994110D3104620
:100200001946224600F0F0F9361A8F41019722462E
:1002100001200021009F00F0E7F938184D410090BF
:100220002046641E0028DFDC019B009829463246E8
:1002300007B0F0BDF0B507460846584087B0C00F7C
:10024000049048000E46590040084908BC1A8841ED
:1002500005D2384631461E4617460B460246580020
:10026000400810434DD0300D039040055900400D1B
:10027000490D0590401A0290402873DA18030121B5
:10028000000B09050843019004980092002806D04D
:100290001146019A49420020904100910190029834
:1002A00040210A1A0199009800F09EF905460C4673
:1002B0006B4607CB00F0B9F9C0197141039A0E0DD6
:1002C0000023D71756401A467A40164344D0049A62
:1002D000002A2DD0029A012A039A15DC1205C01AB1
:1002E000914101263605001C7141D20F059ED207AF
:1002F0000093019202962A46234600F0B6F907B011
:10030000F0BD38463146FAE71605234A0F46B218C3
:10031000C01AB74101210905001C4F4100187F4157
:10032000114618187941E20F10436D19644113E02A
:10033000E2076D0815436408C2071443039A0126B7
:100340001205C01A91413605001C7141CE074008C4
:1003500030434908C01851412A46234600F078F935
:10036000CDE7FFE7049801224000C117121A0023CD
:100370008B4104983146C417381AA141EEE730B4D6
:100380000124E407634030BC54E730B40124E4079F
:10039000614030BC4EE700000000E0FFF0B51FB444
:1003A00088B00B990998002448400999C00F49006A
:1003B00049080991C0070B990090490049080B9121
:1003C00009990898A64608431CD00B990A98084337
:1003D00018D0099801244000420D4800410D0998A9
:1003E00024050003000B204309900B980003000B29
:1003F00020430B9050181C494018002201901446CD
:10040000104605E0002001460DB0F0BD032801DADA
:10041000034600E003239C46C11A0AAE0AE05F00CF
:1004200008ADED5B4F00F75B7D430027AA187C41C8
:10043000491C5B1E6145F2DD410004AB5A522104A8
:10044000120C0A43240C401C0828DFDB01980290A0
:100450000099704601910090059B049A07990698AF
:1004600000F003F9D0E700000DFCFFFFF0B50C46EB
:100470005C4085B0E40FE40703944C000026640858
:1004800059009446490802460296224321D062460A
:100490000A431ED06200570D4A000E032303550D78
:1004A000012402462C492405781B1B0B360B4018EF
:1004B00023432643614600901C46501AB44103D39F
:1004C0000098401C009002E0921800985B410028C0
:1004D00003DA0020014605B0F0BD00200121090526
:1004E0000746864611E064461D46141BB54106D3F7
:1004F0006546521BB341744607430C43A646CD07DD
:1005000040084908284392185B4105460D43EAD14B
:100510001046184313D060461946504071400843B6
:1005200006D06046101AB34106D20122002306E02D
:1005300000220123DB0702E00122D243531000987E
:1005400074460105381C6141029C039D00196941F4
:1005500000F07EF8BFE70000FD0300004A00090339
:100560000123090B1B0519430A4B10B5520D9A4282
:1005700002DA0020014610BD064B34339A4203DCF8
:100580009A1A00F041F810BD034BD21800F02CF875
:1005900010BD0000FF030000CDFBFFFF10B50029D8
:1005A00004DB0124E40740428C412146002B04DB9C
:1005B0001C460123DB075242A341994200D19042DD
:1005C00010BD0000064C0125064E05E0E36807CC8F
:1005D0002B430C3C98471034B442F7D3FFF774FD1B
:1005E000943B0008B43B000810B5202A04DB014608
:1005F000203A9140002010BD914020239C1A0346D0
:10060000E3401943904010BD10B5202A04DB084692
:10061000203AD040002110BD0B46D340D0402024CA
:10062000A21A91400843194610BD10B5202A06DBD6
:10063000CB170846203A1041C1170B4306E00B4682
:100640001341D0402024A21A91400843194610BDFE
:1006500010B5002B08DA0024401C614192185B4160
:100660001A4301D14008400010BDF0B51FB482B05C
:1006700005460C0003D0084601F0DEFD02E001F063
:10068000DBFD20300246009021462846FFF7ACFFF4
:10069000049B059A04460F4618431143084314D09F
:1006A000184610431BD0009840210A1A1846059995
:1006B000FFF7AAFF05460E46009A05990498FFF732
:1006C00093FF084305D0012004E02046394607B0D7
:1006D000F0BD0020C11705430E432C43374300995A
:1006E0000E986305401A7905E40A00220C43FD0ABE
:1006F0000A3002D500200146E9E7010510196941D9
:100700000C9C0D9D00196941FFF7A2FFDFE7000077
:1007100070B50125ED06002406E0A0002858A100D0
:10072000064A5050601CC4B2302CF6DB0120400752
:100730000349886002F07EFD002070BD00000020AB
:1007400000ED00E0F7B5074615460421052000F04E
:10075000FFF80021012000F025F980210A2000F097
:100760003BF9002405E0395D092000F01BF9601C0D
:10077000C4B201988442F6DB0321012000F012F993
:10078000FF2400BF052000F0F3F80646601EC4B247
:10079000002C03D0042030400028F3D0222000F0A9
:1007A000E7F82870212000F0E3F86870FEBD000033
:1007B00010B586B000F0D8FD1E484079002836D02C
:1007C0001C4800791B49C978009101901948837829
:1007D0004278017818A002F069FD02216846017391
:1007E00005214173134801786846817311484178A7
:1007F0006846C1730F488178684601740D48C17816
:10080000684641740B48017968468174072103A842
:1008100002F02AFD044621126846C17404750921BC
:1008200003A802F027FE00200249487100BF06B06D
:1008300010BD0000DA0000204D3120636172643A7F
:100840002530327820253032782025303278202526
:1008500030327820253032780D0A000010B50120A2
:1008600000F06EF9002805D0012000F0D3F8022036
:100870000149488110BD0000A802002010B51020D9
:1008800000F05EF9002804D0102000F0C3F802F058
:10089000DBFB10BD70B5044602F002FD051905E052
:1008A00002F0FEFCA84201D3002070BD054800699B
:1008B0000121090408400028F2D1034801490861D8
:1008C0000120F2E7002002401180000000BFFEE797
:1008D00000BF1948006A012108431749086200BF98
:1008E00000BF00BF1448006A0221084040080028E9
:1008F000F7D000BF11481249086000BF00BF11487F
:10090000086000BF0320486000BF0F48886000BF38
:1009100000BF00BF0A48C0688007800F002801D1CF
:10092000012000E000200028F3D000BF0748044960
:10093000086000BF7047000040100240CCCC0000AF
:100940000030004055550000B80B0000AAAA000076
:1009500070B505460C460026284600F009F8064604
:100960003046A0430146284600F01CF870BD000048
:1009700070B504460025A006400E044680340221CE
:10098000074800F062F9204601F0D8F9002001F094
:10099000D5F905460221024800F05BF9284670BDF2
:1009A0000004005070B505460C460221094800F0CD
:1009B00050F9A806450E0221064800F046F92846DF
:1009C00001F0BCF9204601F0B9F90221014800F01C
:1009D00040F970BD0004005070B505460C46002675
:1009E0002846FFF7C5FF0646304620430146284605
:1009F000FFF7D8FF70BD000008B50549C96B01437A
:100A0000034AD1631146C96B0140009100BF08BD84
:100A1000001002400149C860704700000018024001
:100A2000024949688143014A516070478018024079
:100A3000024909688143014A1160704780180240E9
:100A4000024949680143014A5160704780180240D9
:100A5000024949680143014A516070470018024049
:100A6000024909680143014A116070478018024039
:100A7000024909680143014A1160704700180240A9
:100A800070B504460025207900284ED02068002843
:100A900051D06079002804D0012809D0022815D14E
:100AA0000DE02068FFF7BCFF2068FFF7D9FF0FE0DB
:100AB0002068FFF7BDFF2068FFF7C2FF08E020684D
:100AC000FFF7CEFF2068FFF7BBFF01E0012500BF65
:100AD00000BFA07900282ED0A079012804D00228D8
:100AE0000DD003281DD115E02068144949688143C1
:100AF000124A516000BF2068FFF7BAFF14E0206877
:100B00000E49096881430D4A116000BF2068FFF754
:100B10009FFF09E02068FFF7ABFF2068FFF798FF11
:100B200002E00220054300BF05E02068FFF780FFD8
:100B30002068FFF775FF284670BD000000180240CE
:100B400001460248C0680840704700000018024093
:100B5000F0B502460B46002661E00124B440196856
:100B6000214000295AD0586814680D464D436F0043
:100B7000ED19AC430D464D4345432C43146000BF73
:100B80005868012802D0586802280DD198689468E6
:100B90000D464D436F00ED19AC430D464D434543A3
:100BA0002C43946000BF00BF1869D4680D464D43C4
:100BB0006F00ED19AC430D464D4345432C43D460C3
:100BC00000BF5868022829D1FF2911D85869146A32
:100BD0000D464D434D434D432F017D1BAC430D4608
:100BE0004D434D434D4345432C43146200BF15E034
:100BF0005F69080A40430C0A60430C0A6043040121
:100C0000241A506AA0430C0A64430D0A6C430D0A6F
:100C10006C437C432043506200BF00BF761C1868C1
:100C2000F040002899D15868012802D0586802285D
:100C300009D1DC68186855688543074667433D431A
:100C4000556000BF00BF0120F0BD81627047816127
:100C500070478161704730B503680C464C436500AE
:100C60006419A3430C464C4354432343036030BDF3
:100C700010B543688B430C4654432343436010BD77
:100C800030B5C3680C464C4365006419A3430C4659
:100C90004C4354432343C36030BD30B583680C4696
:100CA0004C4365006419A3430C464C43544323430F
:100CB000836030BD08B50549496B0143034A516360
:100CC0001146496B0140009100BF08BD0010024071
:100CD00070B504467D25ED0029462046FFF740FA11
:100CE000401E04494861002088610520086100BF5A
:100CF00070BD000000E000E0024880683821084034
:100D0000704700000010024010B5044600F036FFA6
:100D10002060206800F008FF6060606800F01AFF43
:100D2000A06010BD0149086070470000C0000020AD
:100D300001680122114301607047000010B50246AE
:100D400013681F48824202D01E48824205D11846CD
:100D50007024A0434C6820430346194882420BD0BC
:100D60001848824208D01848824205D0174882426B
:100D700002D01748824206D1184603242402A04319
:100D8000CC682043034613608868D06200BF08889F
:100D9000906200BF0A48824205D00C48824202D0CD
:100DA0000B48824203D1087C106300BF00BF00BF24
:100DB000506901242043506100BF012010BD000094
:100DC000002C01400004004000200040004401408D
:100DD00000480140F8B506460C4615460027012C90
:100DE0000AD0102C0ED0E01FF938002810D00F21A7
:100DF0000902401A18D111E02946304600F066F980
:100E0000074612E02946304600F0B0F907460CE0EC
:100E10002946304600F008FA074606E029463046E3
:100E200000F05CFA074600E000BF00BF3846F8BD9E
:100E3000816370470021016041608160C160016190
:100E400041618161C1617047FEB505460C460027CE
:100E50000026284600F038F8002831D1E1686068A3
:100E6000084321690843E968164A11400843E860CD
:100E700068690121C9028843A16908436861A068C3
:100E800029690122520391430143296100BF60692E
:100E900069690322120291430143696100BF6846F8
:100EA000FFF732FF029E002E0AD02068002807D0EC
:100EB0000127314628462368A26900F00CF800BFDC
:100EC0003846FEBDF3E9FFFF0146C8680122520320
:100ED0001040400B7047FFB583B00C461D46012102
:100EE000C9020598884247D1690019226243104619
:100EF000FFF736F906466421FFF732F9070169006A
:100F0000192262431046FFF72BF9064669001922A1
:100F100062431046FFF724F964210190FFF720F99E
:100F200064214843301AC00032300290FFF718F9AC
:100F3000F821084040003F1869001922624310461A
:100F4000FFF70EF906466900192262431046FFF7C3
:100F500007F964210190FFF703F964214843301A2F
:100F6000C00032300290FFF7FBF84007400F3818FE
:100F700081B20398816045E0A900192262431046BE
:100F8000FFF7EEF806466421FFF7EAF80701A9002B
:100F9000192262431046FFF7E3F80646A90019221A
:100FA00062431046FFF7DCF864210190FFF7D8F8A0
:100FB00064214843301A000132300290FFF7D0F824
:100FC000F02108403F18A900192262431046FFF79C
:100FD000C7F80646A900192262431046FFF7C0F879
:100FE00064210190FFF7BCF864214843301A0001E6
:100FF00032300290FFF7B4F80007000F381881B2C2
:101000000398816007B0F0BD08B501460A4A12692D
:10101000009200BF0846421C002A00D0401C07E096
:10102000054A126901231B041A40002A00D0401E01
:101030000028F5D108BD000000E000E07047000086
:10104000C206D20E01219140014A11607047000092
:1010500000E100E010B5002819DA1A4A03071B0F57
:10106000083B9B089B00D2588307DC0EFF23A3405C
:101070009A438B071B0E8407E40EA3401A43114BBF
:101080000407240F083CA408A4001A5118E00E4AD3
:1010900003231B02D21883089B00D2588307DC0E5F
:1010A000FF23A3409A438B071B0E8407E40EA34043
:1010B0001A43054B032424021B198408A4001A5167
:1010C00010BD00001CED00E000E100E070B502463C
:1010D000106A400840001062136A55689469A408B9
:1010E000A40020467026B0430E68304304461846DC
:1010F0000226B0430E6930430346580840004E684C
:10110000304303461648824205D01648824202D038
:10111000154882421CD118460826B0434E69B600D5
:101120003043034618460426B0438E68B600304369
:1011300003462846FF260136B0438E6930430546F4
:10114000284601267602B043CE6976003043054634
:1011500055609461C868506300BF1362012070BD80
:10116000002C01400044014000480140F8B504460D
:101170000D46206A102188432062266A606800902C
:10118000A7690321090238468843074638460721E4
:10119000090388432968090208430746304620218D
:1011A00088432969090108430646304610218843CF
:1011B00069680901084306461848844205D0184862
:1011C000844202D0174884421DD130468021884392
:1011D0006969890108430646304640218843A96869
:1011E0008901084306460121890200988843A969BC
:1011F0008900084300900121C90200988843E969E9
:10120000C9000843009000986060A7612046E96823
:10121000FFF70EFE26620120F8BD0000002C014001
:10122000004401400048014070B50246106AFF26A4
:101230000136B0431062136A5568D469A408A4004B
:1012400020467026B0430E683043044618460126F7
:101250007602B0430E693602304303461846FF2635
:101260000136B0434E683602304303461848824286
:1012700005D01848824202D0174882421FD1184632
:101280000126F602B0434E69B602304303461846C3
:101290000126B602B0438E68B602304303462846A4
:1012A00001263603B0438E69360130430546284691
:1012B00001267603B043CE6976013043054655607A
:1012C000D461C868D06300BF1362012070BD000004
:1012D000002C0140004401400048014070B5024626
:1012E000106A01263603B0431062146A5568D36948
:1012F000032636021846B04303461846072636032F
:10130000B0430E683602304303462046012676037A
:10131000B0430E69360330430446204601263603A7
:10132000B0434E683603304304460C48824205D031
:101330000B48824202D00B48824207D12846012640
:10134000B603B0438E69B601304305465560D3619C
:10135000C868106400BF1462012070BD002C0140F9
:101360000044014000480140F0B595B000200C90C9
:1013700000270B900A900990A448089014A92620F1
:1013800000F0F4FA002829D0A1480068401CA049C8
:1013900008600846006808281DDB002008609D489A
:1013A0000078012817D19C480078401CC0B29A49A7
:1013B000087001280FDB00200870984908704870F9
:1013C0008870C87008719349087095490870487012
:1013D0008870C8700871012015B0F0BD10A8427C5B
:1013E000017C90A001F062FF89480068082806DBB4
:1013F00001F0AEFB0020864908600120ECE7932154
:1014000011A800F0DBF9002809D08EA001F04EFFF2
:101410007F480068401C7E4908600120DCE70CA979
:1014200011A800F0CEFA002809D08BA001F03EFFF1
:1014300077480068401C764908600120CCE708A87E
:10144000017C89A001F032FF08A8007C042108403B
:10145000002875D00027002F71D1952112A800F027
:10146000ADF9002809D086A001F020FF6848006887
:10147000401C674908600120AEE70CA912A800F0E3
:10148000DBFA002809D083A001F010FF6048006853
:10149000401C5F49086001209EE708A8017C81A0EC
:1014A00001F004FF08A8007C04210840002848D06F
:1014B00000200B900B980028CED1972113A800F0A4
:1014C0007DF9002809D07DA001F0F0FE50480068A9
:1014D000401C4F49086001207EE70CA913A800F0CA
:1014E000E6FA002809D07AA001F0E0FE484800683A
:1014F000401C4749086001206EE708A8017C78A0DD
:1015000001F0D4FE08A8007C0421084000287AD10C
:1015100010A8C17B827B437B007B049305920691DC
:10152000039010A8C17A827A407A019202910090C9
:1015300010A8C379827941796F4801F0B7FE62E063
:1015400012E001200B9010A8C17A827A437A007AC7
:10155000019302920391009010A8C3798279417996
:1015600066A001F0A3FE4EE0012700202849086094
:1015700010A9C879000689790904084310A9497996
:101580000902084310A909790843099000241AE0C8
:101590000A210998FEF7E4FD0D460A210998FEF795
:1015A000DFFD09900A210998FEF7DAFD0E460A21AF
:1015B0000998FEF7D5FD0990300140190421091B57
:1015C0000DAA5054641C052CE2DB08A8007D1449C8
:1015D000087008A8407D487008A8807D887008A819
:1015E000C07DC87008A8007E0871012009490870F4
:1015F000002009490870052209494E48FEF7C6FD3A
:1016000001204C4948710020E6E60000400D03002F
:101610000C0100201B0100201C01002016010020ED
:101620001101002052657175657374333A6F6B2038
:1016300020415451413A2530327820253032780DFE
:101640000A000000416E7469636F6C6C313A666128
:10165000696C0D0A0000000053656C656374313AD3
:101660006661696C0D0A000053656C656374313AFC
:101670006F6B202053414B313A253032780D0A00F0
:10168000416E7469636F6C6C323A6661696C0D0A05
:101690000000000053656C656374323A6661696CE2
:1016A0000D0A000053656C656374323A6F6B20203D
:1016B00053414B323A253032780D0A00416E74693D
:1016C000636F6C6C333A6661696C0D0A0000000050
:1016D00053656C656374333A6661696C0D0A00008A
:1016E00053656C656374333A6F6B202053414B3301
:1016F0003A253032780D0A004C3B0008416E74697F
:10170000636F6C6C323A6F6B20205549443A253038
:10171000327820253032782025303278202530323A
:1017200078202530327820253032782025303278E4
:101730000D0A0000DA00002010B508210846FFF766
:1017400007F900211220FFF72DF900211320FFF7E0
:1017500029F926212420FFF725F968212620FFF703
:1017600021F980212A20FFF71DF9A9212B20FFF75D
:1017700019F903212C20FFF715F9E8212D20FFF797
:1017800011F940211520FFF70DF93D211120FFF738
:1017900009F900210120FFF705F900F001F810BD5B
:1017A00010B51420FFF7E4F80446A007800F0028C6
:1017B00003D103211420FFF70FF910BDF0B589B054
:1017C00005460E46002708210846FFF7C1F800210C
:1017D0000D20FFF7E7F880210E20FFF7B9F86846E3
:1017E00006722021417207A802AB022202A90090D2
:1017F0000C2000F01DF808900898002811D1002452
:1018000007E002A8005D285502A8005D4740601C63
:10181000C4B2042CF5DB02A8005DB84201D002205E
:10182000089080210E20FFF7D7F8089809B0F0BD86
:10183000FFB583B006460220029000200190009080
:101840000C2E06D00E2E09D11220019010200090EF
:1018500005E0772001903020009000E000BF00BF3D
:1018600080210420FFF774F800210120FFF79AF887
:1018700080210A20FFF7B0F8002505E00498415DBB
:101880000920FFF78FF86D1C05988542F6D3314685
:101890000120FFF787F80C2E03D180210D20FFF7E0
:1018A0009BF84B25ED0000BF0420FFF761F80446CC
:1018B0006D1E002D07D0E007C00F002803D100984F
:1018C00020400028F0D080210D20FFF741F8002DA6
:1018D0003ED00620FFF74CF8234908700620FFF79A
:1018E00047F81B210840002830D102900198204081
:1018F000C007C00F002801D0012002900C2E27D174
:101900000A20FFF735F804460C20FFF731F84707A7
:101910007F0F002F05D0601EC000C1190C98016018
:1019200002E0E1000C980160002C00D10124122C8F
:1019300000DD1224002506E00920FFF719F8014612
:10194000069841556D1CA542F6D301E00220029095
:1019500080210C20FFF740F800210120FFF722F83A
:10196000029807B0F0BD00001001002070B588B0EB
:1019700005460C4608210846FEF7EAFF07210D2020
:10198000FFF710F803211420FFF726F868460572C8
:1019900007A802AB012202A900900C20FFF748FF24
:1019A0000646002E09D10798102806D16846007A0D
:1019B00020706846407A607000E00226304608B029
:1019C00070BDF0B587B005460F469321684601719A
:1019D000702141710021817200240BE0295D01AA70
:1019E000A01C11546946887A295D4840694688726E
:1019F000601CC4B2042CF1DB02AA0332072101A847
:101A0000FEF7A0FE08210846FEF7A2FF06A801ABDC
:101A1000092201A900900C20FFF70AFF0646002EBC
:101A200006D10698182803D168460079387000E07E
:101A30000226304607B0F0BDF0B587B005460F4628
:101A40009521684601717021417100218172002445
:101A50000BE0295D01AAA01C11546946887A295D12
:101A6000484069468872601CC4B2042CF1DB02AAAB
:101A70000332072101A8FEF765FE08210846FEF79C
:101A800067FF06A801AB092201A900900C20FFF70F
:101A9000CFFE0646002E06D10698182803D16846C8
:101AA0000079387000E00226304607B0F0BDF0B58E
:101AB00087B005460F469521684601717021417136
:101AC0000021817200240BE0295D01AAA01C1154A1
:101AD0006946887A295D484069468872601CC4B2AC
:101AE000042CF1DB02AA0332072101A8FEF72AFE2B
:101AF00008210846FEF72CFF06A801AB092201A920
:101B000000900C20FFF794FE0646002E06D10698A2
:101B1000182803D168460079387000E00226304664
:101B200007B0F0BD70470000014600BF074880685D
:101B30000F22120210401040000A8000044A105C7C
:101B4000C206D20E0846D040704700000010024086
:101B500050380008014600BF06488068072212037B
:101B60001040000B8000044A105CC206D20E0846EA
:101B7000D0407047001002409038000870B5FFF761
:101B8000BBF800280FD0082804D0182804D020283B
:101B900008D104E0114C1EE00124E40300BF01243D
:101BA000E40300BF00BF00BF0D4800680721C90261
:101BB0000840C10A012088400546094949680722B2
:101BC00052031140490B8900064A50582946FEF736
:101BD000C7FA044600BF00BF204670BD00366E0144
:101BE00000100240B038000810B55148C088401CB1
:101BF0004F49C8800846408900280FD008464089D0
:101C0000401E488108464089002807D1052000076A
:101C10000069C007C00F002801D1C88086E0444990
:101C2000C988CAB24349087B411CCBB241490B73F6
:101C3000F4390A543E48C0888C280EDD3C48C088E0
:101C4000FF210531884208DAFF210F313848FEF7BD
:101C5000B6FA01203649087157E035480079012865
:101C600024D13348C088002820DD3148C0880B28A3
:101C70001CDA2F4BD978CB175B0F5B18DB102C4C81
:101C80001A192346D878C3175B0F1B18DB10DB002B
:101C9000C31A0724E41A0123A340147823431370C2
:101CA0002348C078401C2249C8702EE020480079A3
:101CB000012824D11E48C0880C2820DD1C48C0887B
:101CC00023281CDA1A4BD978CB175B0F5B18DB1073
:101CD000174C1A192346D878C3175B0F1B18DB1053
:101CE000DB00C31A0724E41A0023A340147823431B
:101CF00013700F48C078401C0D49C87005E0FF21E3
:101D00000F310B48FEF75BFA10BD0948C078182860
:101D10000CD101200849C870032205490648FEF786
:101D200035FAFF210F310248FEF749FA00BFEBE711
:101D3000A8020020A8030020D0000020F8B5054626
:101D400000268024002700BF29E08021052000070D
:101D5000FEF77BFF28462040002805D040210520C3
:101D60000007FEF776FF04E0402105200007FEF79C
:101D70006CFF802105200007FEF76BFF2020052166
:101D8000090709690140814201D1012100E00021D8
:101D9000012902D130462043064664107F1C082FDB
:101DA000D3DB3046F8BD70470B480068401C0A4939
:101DB00008600A48407800280CD008484078401C49
:101DC0000649487008464078052803DB0020487023
:101DD0000120887070470000C4000020A40100208A
:101DE00010B500BF27480068FF210131084325498D
:101DF000086000BF2449098AC804C00C0122D2032C
:101E0000104320494968090C090401431D4A5160E7
:101E100000BF00BF00BF1B480068012189020840C5
:101E2000800A0028F6D00020164989680F22120285
:101E300091430143134A916000BF00BF1146896876
:101E4000C908C9000143916000BF00BF00BF0D4831
:101E50008068382108400028F8D100BF0949896806
:101E60000722120391430143064A916000BF0748CD
:101E7000FEF72EFF0548FEF755FF032004490861D1
:101E800010BD000000100240000FFF1F00366E0161
:101E900000E000E007484068000C0004012149030D
:101EA000401805494968084302494860C803034986
:101EB0008860704700100240000FFF1F00ED00E037
:101EC00000200B4908800B4908800B4908800B490A
:101ED00008800BE0064800F027F8064800F08AF872
:101EE000054800F0ABF8054800F0E8F8F2E700001C
:101EF000E0000020F0000020F8000020E8000020B2
:101F000010B500BF0120C0430549086100BF054866
:101F10000068401C03490860FFF766FE10BD000022
:101F200000040040C800002030B585B00446208879
:101F3000002802D02E2844D104E041E000BF2E202A
:101F4000208000BF21484079002801D105B030BD74
:101F500000BF1E4800791D49C978009101901B48B7
:101F60008378427801781AA001F0A0F9012168462F
:101F70000172052141721548017868468172134843
:101F800041786846C17211488178684601730F48EC
:101F9000C178684641730D4801796846817307210D
:101FA00002A801F061F9054629126846C17305745B
:101FB000092102A801F05EFA06210448FEF7FFF8A5
:101FC000BCE7002020800220C0E70000D4000020F1
:101FD000496420636172643A2530327820253032BA
:101FE000782025303278202530327820253032781C
:101FF0000D0A000010B504462088002802D04C28A5
:1020000014D104E011E000BF4C20208000BF09483B
:102010008078002800D110BD00BF01F047FA0020F1
:102020000449887000210448C170ECE7002020803A
:102030000220F0E7A4010020A402002010B504460D
:102040002088002802D068282ED122E02BE01849F1
:1020500008680968491C164B19600A21FEF780F8C8
:10206000002907D101F0ACFB00BF124812490860FB
:1020700000BF00BFFEF79CFB0D480068401C0C49E8
:10208000086000BF01F00CF9606000BF682020808C
:1020900000BF01F005F96168401A642801D20020F0
:1020A00010BD00BF00BFD2E7002020800220F7E76C
:1020B00000010020AAAA0000003000407CB50446C0
:1020C0002088002802D0732831D104E02EE000BF20
:1020D0007320208000BF1848C078002800D17CBD44
:1020E00000BF154883784278017814A001F0DEF82B
:1020F00003216846017041700F480178684681707D
:102100000D4841786846C1700B4881786846017176
:10211000052101F0A9F8054629126846417185712B
:10212000072101F0A7F900200349C870CFE700207C
:1021300020800220D3E70000D00000205246343334
:10214000332049443A253032782025303278202512
:102150003032780D0A0000000A480068202108404B
:1021600000280ED007484068C1B20748C278C0783E
:10217000401CC3B20448C370FD3881540120034998
:102180004870704700440040A4020020A4010020D1
:1021900010B503460C461946E21DF93200BF49004E
:1021A0005200FF2001301040002800D0491C0120BF
:1021B00000040840002801D00448414001200004E8
:1021C00010400028EBD088B210BD000021100000A4
:1021D000F8B505460E460024AF1905E029786D1CB8
:1021E000A0B2FFF7D5FF0446BD42F7D3A0B200214D
:1021F000FFF7CEFF044620460021FFF7C9FF044643
:102200002046F8BD0FB410B503A9044B044A029848
:1022100000F000F910BC08BC04B01847352E0008C7
:102220002001002010B5024B024A00F0F3F810BD67
:10223000352E0008200100202021020C01D01021A1
:102240001046020A01D010460839020901D0104692
:10225000091F820801D01046891E420801D0881E3D
:102260007047081A704730B47446641E2578641CA1
:10227000AB4204D3635D5B00E31830BC18471D46D6
:10228000F8E702E008C8121F08C1002AFAD1704717
:102290007047002001E001C1121F002AFBD17047E6
:1022A000F0B51FB486B00998089A030D00210243C7
:1022B00014D05148514A1818504305141198012858
:1022C00010981AD0281A401C00264D4F4D490096F0
:1022D00001910490002812DA444211E0119801247F
:1022E00049A3012801D11098C1430698119A84602E
:1022F0000360C26041600BB0F0BD4042E4E70446B9
:10230000210500203F4A001C51410391029012E038
:10231000E00707D032463B4601990098FEF73EF8A9
:102320000191009032463B4610461946FEF736F8BA
:1023300006460F466410002CEAD10498039B00283F
:10234000029A0999089806DAFEF728F8019B009A84
:10235000FEF724F805E0FEF789F8019B009AFEF7E6
:1023600085F804460E460022284BFEF717F903D8DD
:102370000020C043014607E00022254B204631469D
:10238000FDF758FFFEF7EAF8102409E0002C0ADBFD
:102390000A220023FDF71EFF079B30321A55641EE8
:1023A00002460A43F2D11122641C079B121B1C191E
:1023B000119B012B03D0012308430ED10AE00843EF
:1023C00004D0112010900020119077E71098151A72
:1023D0006D1E0BE01098824202DD00236D1C03E0AD
:1023E000824201DA00236D1E002BEED0069811996F
:1023F0008260C16030C07EE701FCFFFF104D00002D
:10240000000014400000F03F300000000000F043E6
:102410000000E03FFFB597B0064600251BE22528E7
:1024200076D100242746F749049400E00443761C43
:1024300032780120203A90400842F7D130782A289B
:102440000ED00222307801463039092916D8049975
:102450000A235943303940181443761C0490F1E79D
:10246000189802C804911890002904DA012040034A
:1024700004434842049002200443761C30782E28FE
:1024800014D1042004437078761C2A2809D11898A6
:10249000761C80C8189009E00A214F43303FC719C5
:1024A000761C3078014630390929F5D930786C2806
:1024B00010D006DC4C281AD068280ED06A2817D114
:1024C00004E0742813D07A2812D110E001204005CE
:1024D00004430CE00121090501E0032109050C4337
:1024E0007178814203D1012000052418761C761CE6
:1024F000307866280BD013DC58287DD009DC002802
:102500007BD04528F6D04628F4D047281AD1A9E137
:1025100018E0632835D0642870D0652812D1A1E175
:1025200070286CD008DC6728F1D069287DD06E282F
:102530000DD06F2806D1BCE073282ED0752873D03B
:10254000782859D01A9A199990476D1C82E1600237
:10255000400F022809D003280DD0042818980168DC
:102560000DD00D60001D189074E11898EA170168ED
:102570000D604A60F6E7189801680D80F2E70D706B
:10258000F0E718986A4601781172001D1890002033
:10259000507202A80090012005E0189802C8189017
:1025A00000200091C04361070ED5002101E0019990
:1025B000491C0191B94213DA8142F8DB019A009972
:1025C000895C0029F3D10BE0002101E00199491C4D
:1025D00001918142FADB019A0099895C0029F5D1C9
:1025E000019904981A9B471A21463846199A00F017
:1025F00099FA4019019903E051E030E115E050E00B
:10260000451807E0009800990078491C00911A9A33
:10261000199990470198401E0190401CF2D1214623
:1026200038461A9B199A12E137E00A2000210090DF
:1026300001916002410F022907D0189A01CA18922D
:10264000C2179446032908D00AE01898C01DC10893
:10265000C90005C91891944607E000B2C217944614
:10266000042902D140B2C1178C460022614694452C
:1026700006DA0A460021404291418C462D2102E0B3
:10268000210504D52B216A461173012103E0E107DE
:1026900001D02021F7E7029156E00A200AE010203D
:1026A00008E0102000900021042004430191082735
:1026B00003E008200021019100906002410F0229EF
:1026C00007D0189A01CA189200229446032908D00C
:1026D00008E01898C01DC108C90005C918919446A2
:1026E00003E080B2042900D1C0B200210291210789
:1026F0002AD531780D91702906D0009A1021019BBE
:102700004A401A4305D00EE040216A461173012168
:1027100008E06146014306D030216A4611730D99E5
:10272000517302210291009A0821019B4A401A43E9
:102730000AD16146014301D1610705D530216A46BE
:10274000117301217F1E02913178582904D02EA1E6
:102750000E910DA90D910DE030A1F9E76146019BA5
:10276000009AFDF737FD0E9B8C469B5C0D9A521E1E
:102770000D92137061460143F0D10D9805A9081A16
:1027800020300190600703D501200004844300E05D
:1027900001270198874201DD381A00E000200199E5
:1027A00000904118029809180498401A0490E00318
:1027B00006D421461A9B199A049800F0B3F94519DA
:1027C000002706E003A81A9AC05D199990476D1C6E
:1027D0007F1C02988742F5DBE0030CD521461A9B4B
:1027E000199A049800F09EF9451904E01A9A3020CD
:1027F000199990476D1C0099481E00900029F5DC3E
:102800001FE00000092801003031323334353637FB
:10281000383961626364656600000000303132332C
:1028200034353637383941424344454600000000CC
:102830000D980D990078491C0D911A9A1999904795
:102840006D1C0199481E01900029F1DC4DE100F05A
:1028500059F94519761C3078002800D0DFE5284664
:102860001BB0F0BD600700D406271898C01DC10832
:10287000C90048680A680831C30FDB0718911900BE
:1028800001D09CA108E0210501D59BA104E0E1074E
:1028900001D09AA100E09AA14300109130785B0822
:1028A00065280CD006DC452809D046281DD04728CD
:1028B00041D141E0662818D067283CD13CE0002196
:1028C000112F01DB112000E0781C0191009008A974
:1028D00011A8FFF7E5FC139905910021119A1592B3
:1028E0007F1C12980197009150E00120C0070390CF
:1028F0000120019008A9009711A8FFF7D1FC139AB5
:10290000149905920022119B009212981593059A32
:102910000192002901D0104602E0791C4018019074
:10292000381A01D5019804E04042401E0090781CFE
:102930000190C01B029043E0012F00DA0127002123
:10294000112F01DD112000E038460191009008A907
:1029500011A8FFF7A5FC13990591119A002112986F
:1029600015920091019721070CD40599B94201DB1A
:10297000019900E00191012904DD159A491E515C7D
:10298000302906D0B84201DA011D05DA0121029191
:1029900015E00199491EEDE7002805DC0099411872
:1029A00000910199091A03E0019A411C914200DD4E
:1029B00001910099401A401C02900120C007039029
:1029C000200706D402990198814202DB0020C0430F
:1029D000029000206946C87707AF012103980337AA
:1029E000C907884224D0022011902B20129003980E
:1029F00000280CDA404203902D20129007E00A21B3
:102A00000398FDF7ADFB30317F1E039039701199AB
:102A1000481E11900029F2DC03980028EFD1791E9E
:102A2000129808703078202108404530BF1E387059
:102A300006A8C01BC01D039010980078002800D085
:102A40000120019941180298C01709180398091824
:102A50000498401A401E0490E00306D421461A9BB5
:102A6000199A049800F05EF845191098007800282B
:102A700003D01A9A199990476D1CE00324D521467A
:102A80001A9B199A049800F04DF845191CE000981B
:102A9000002807DB00990598884203DD1598405C03
:102AA000199901E0199930201A9A904700986D1CE5
:102AB000401C00900298401E0290002804D11A9AEF
:102AC0002E20199990476D1C0199481E01900029EC
:102AD000DDDC05E038781A9A7F1C199990476D1C47
:102AE0000399481E03900029F4DC21461A9B199A89
:102AF0000498ACE62D0000002B0000002000000030
:102B000000000000F8B5044600251E46174688045C
:102B100004D405E039462020B0476D1C641EF9D569
:102B20002846F8BDFFB50446002581B01E46C803FF
:102B300001D5302700E02027880404D505E0384679
:102B40000399B0476D1C641EF9D5284605B0F0BD49
:102B500010B504210748FEF778F81420FEF754FA60
:102B600004210448FEF775F80A20FEF74DFAFEF737
:102B7000E3FD10BD00040050F0B5024600213FE027
:102B80000023002019E08E008E19361835460935CD
:102B9000EE17760F7619F610965D8F00CF193F1855
:102BA0003C460934E7177F0F3F19FF10FF00E71B72
:102BB0003E41F607F60FF318401C0428E3DB8D00B6
:102BC0004D192C460D34E5176D0F2D19ED10565D7E
:102BD0008D004D1928460D30C5176D0F2D18ED10BD
:102BE000ED00451B2E41F507ED0FEB181846DC0FE5
:102BF0002418641064001C1B01D00020F0BD491C87
:102C00000A29BDDB00213AE00023002019E08600FC
:102C10008619761835460935EE17760F7619F610AF
:102C2000965D8700C7197F183C460934E7177F0F68
:102C30003F19FF10FF00E71B3E41F607F60FF318A0
:102C4000401C0A28E3DB0C463B34E5176D0F2D19B9
:102C5000ED10555D2046C617760F3618F610F600B3
:102C6000861B3541ED07ED0FEB181846DC0F2418D5
:102C7000641064001C1B01D00020BFE7491C04291C
:102C8000C2DB00203AE0002135E0850045196D18CF
:102C90002C460934E5176D0F2D19ED10555D860092
:102CA0008619761833460933DE17760FF618F610B4
:102CB000F6009F1B0126BE403540002D1AD085002E
:102CC0006B18DD176D0FED18ED100E4E755D86005B
:102CD0007418E617760F3619F610F600A71B0126B2
:102CE000BE40354386007318DE17760FF618F610CF
:102CF000044FBD55491C0429C7DB401C0A28C2DB10
:102D000001207BE7D400002010B50A48406901216A
:102D1000C90708430749486108464069C00FC00712
:102D2000002805D1044905A000F0C0FA022010BD1A
:102D30000020FCE7002002400339000825732C2006
:102D4000666C617368206C6F636B206661696C658B
:102D5000640D0A00F8B505460F46144600F03AF82F
:102D6000002800D0F8BD3E461748854204D22819F5
:102D70001649884200D9F5E71DE080211448FDF787
:102D80001EFA802C0BD3802231461148FDF7FEF944
:102D900039462846FDF7A0F9803C80360BE0002C30
:102DA00009D0224631460A48FDF7F0F9394628464F
:102DB000FDF792F90024002CDFD1FFF7A5FF0028D2
:102DC00000D0CFE700BFCDE7008000080000010879
:102DD0002401002010B50C484069C00FC00700282E
:102DE00010D00A4808498860094888600846406948
:102DF000C00FC007002805D0064907A000F056FA0A
:102E0000012010BD0020FCE700200240230167459F
:102E1000AB89EFCDF638000825732C20666C617302
:102E20006820756E6C6F636B206661696C65640DFC
:102E30000A0000000A46C1B2084B596000BF00BF3B
:102E400000BF064909684023194089090029F7D0C5
:102E500000BFD943014B196000BF704700440040D8
:102E600005200007006910210840002801D000203B
:102E700070470120FCE700001CB50120FDF71AFF98
:102E80000220FDF717FF0022202105200007FDF793
:102E9000E2FE0122402105200007FDF7DCFE0322AF
:102EA000402105200007FDF7F8FE00224021052003
:102EB0000007FDF7DDFE0122802105200007FDF758
:102EC000CAFE0322802105200007FDF7E6FE00224E
:102ED000802105200007FDF7CBFE01220221594881
:102EE000FDF7B9FE032202215648FDF7D6FE002267
:102EF00002215448FDF7BCFE02215248FDF7A7FE0F
:102F0000012204214F48FDF7A6FE032204214D486B
:102F1000FDF7C3FE002204214A48FDF7A9FE042163
:102F20004848FDF794FE0022102105200007FDF718
:102F300092FE0122102105200007FDF7A1FE0020CE
:102F4000009001901020009001216846017100213D
:102F5000417103218171FDF793FD00210720FEF7E8
:102F600079F80720FEF76CF8012204213548FDF7B7
:102F700072FE032204213348FDF78FFE0022042154
:102F80003048FDF775FE04212E48FDF760FE022251
:102F9000082105200007FDF75EFE03220821052019
:102FA0000007FDF77AFE0122082105200007FDF742
:102FB00067FE08200D2105221207136A02464243CC
:102FC000424342431401A41A1A46A2430346434310
:102FD000434343434B431A4305231B071A6200BF75
:102FE000012208211748FDF736FE03220821154863
:102FF000FDF753FE002208211248FDF739FE082094
:103000001049886200BF0022012105200007FDF75A
:1030100022FE0122114605200007FDF731FE0120A6
:1030200000900121684601710021417103218171E5
:10303000FDF726FD00210520FEF70CF80520FDF721
:10304000FFFF1CBD0004005010B561490968CAB2F9
:103050006049087D411CCBB25E490B75EC390A54BE
:1030600008461438C07C002810D159480068082848
:103070000BD3574800680D2807D8FFF7F1FE00284A
:1030800003D001205449C87408708CE05248C07CB9
:10309000012821D14E480068032817D34C48006806
:1030A000072813D84C48807C401C4B49887408463C
:1030B000807C102877D10220C87400208874FF20FB
:1030C000087001204870092008746CE0FF21163157
:1030D0004148FDF774F866E03F48C07C022862D1A1
:1030E0003B480068082825D3394800680D2821D8B6
:1030F000FFF7B6FE384948740B46197CCB175B0FB7
:103100005B18DB10344C1A192346187CC3175B0F6D
:103110001B18DB10DB00C41A2F4B5B7CA340147818
:10312000234313702C48007C401C2B49087400205A
:10313000887438E02648006803282FD324480068A4
:1031400007282BD82448807C401C23498874887C1D
:10315000C10F091849104900411A24D1FFF780FE18
:103160001D4948740B46197CCB175B0F5B18DB10AD
:10317000194C1A192346187CC3175B0F1B18DB1058
:10318000DB00C41A144B5B7CA340147823431370F8
:103190001148007C401C1049087404E0FF211631DE
:1031A0000D48FDF70CF80C48007C40280CD10A486B
:1031B000FFF7E2FC002802D0012008494871FF21F6
:1031C00016310548FCF7FBFF00200149086010BDDF
:1031D000C8000020B6040020B6030020D400002060
:1031E00010B5402105200007FDF733FD02211048EE
:1031F000FDF72FFD802105200007FDF72AFD0421A2
:103200000B48FDF726FD04210948FDF71EFD64204B
:10321000FDF7FAFE04210648FDF71BFD6420FDF7CB
:10322000F3FEFEF789FA6420FDF7EEFE10BD000004
:103230000004005010B5FEF7D3FDFDF749FBFFF782
:103240001BFE00F0B9F800F04BF8FFF7C9FF03A030
:1032500000F02CF8FEF734FE002010BD61707020E5
:1032600072756E0D0A00000070B502460B46FF2510
:10327000FF2408E01178521C69400748405C604018
:1032800005460648445C18465E1EB3B20028F1D1DC
:103290002002284370BD00004B3900084B3A00085B
:1032A0000148006870470000C40000200FB438B522
:1032B00005A80090FFF7F4FF0446214606A0FEF79C
:1032C000A1FF00990498FEF7ADFF0020009038BCE4
:1032D00008BC04B0184700005B256C755D20000039
:1032E00000B58FB00120C0023049096801432F4A60
:1032F0001160114609680140019100BF00BF14210F
:103300000AA8FCF75CFF00200D900B900021684696
:103310000185C0200C9008A8017602A8FDF78AFD5F
:10332000602002900020069007900890099060208D
:10333000059002AA01211E48FDF74CFD0AA91C4870
:10334000FDF7FCFC0120C0031949403148606820AA
:10335000174988610846FDF7EBFC01201449086213
:103360000220FDF749FB00200D900B9027216846B5
:1033700001851C200C90002108A801760AA90D489F
:10338000FDF7DCFC00BF0B48C06801210843094978
:10339000C86000BF0846FDF7CBFC1020FDF750FECB
:1033A00000211020FDF756FE0FB000BD4010024076
:1033B000002C01400004004000B58DB00120FDF755
:1033C00079FC01204004FDF717FB04200790022040
:1033D00008900320099000200A9001200B900420FF
:1033E0000C9007A905200007FDF7B2FB022007900B
:1033F00009200C9007A905200007FDF7A9FB002173
:103400001C20FDF727FE1C20FDF71AFEE12000031B
:10341000009000200190029003900C200490002066
:103420000590069069461248FDF70EFD00BF104852
:1034300000690121C90288430D49086108464069B5
:10344000082188430A49486100BF00BF0846C06898
:10345000202108430649C86000BF00BF0846C06875
:10346000491408430249C86000BF0DB000BD000008
:103470000044004010B5024600200BE0135C0A4CEB
:10348000636000BF084B1B6880242340002BF9D0E9
:10349000431CD8B28842F1DB00BF034800684023D8
:1034A00018400028F9D010BD004400401CB5174852
:1034B000006800280DD100BF08E01549095C154AD5
:1034C000125C914200D01CBD411CC8B20828F4DB3C
:1034D000F9E70E480068002816D00D48FD30C17885
:1034E0006B4601AAFD3800F017F804460520FDF7E9
:1034F0008BFD68460088002805DD68460088C1B25B
:1035000001A8FFF7B7FF00BF00BFDCE7CC04002035
:10351000A701002004010020F8B5044615461F4607
:1035200000209A498863207818280AD160781828E2
:1035300007D13C219548FCF742FE002093490860E2
:10354000F8BD924800680300FEF78DFE07F6050EF1
:1035500086E0F6F7F600432028700120388002202C
:103560008A4908600120EBE72078012805D16078BE
:10357000002802D1A078FF2803D000203880401E08
:10358000DEE70026824983A0FFF790FE0BE0F01CE7
:10359000215C7E48001D8155F01C215C81A0FFF755
:1035A00085FE701C86B2F01C205C002801D0802EA5
:1035B000EDDB802E02DB0020C043C1E70021734811
:1035C000001D815578A0FFF771FE301D80B200907C
:1035D00000260CE06D48C0690A214843009989190A
:1035E000615C303940186949C861701C86B2009826
:1035F0008019205C302806DB00988019205C3A286E
:1036000001DA0A2EE6DB6148808B81B267A0FFF702
:103610004DFE5E48C0697F30C0095C49486208467B
:10362000406A0121490288420BD91820287068702D
:10363000022038803C215548FCF7C1FD0020C043E2
:103640007EE706202870432068700220388003201F
:103650004E490860012073E72078012806D161787F
:103660004A48008C401CC0B281421BD06178474858
:10367000006A401C814204D2062028700120388054
:1036800008E0182028706870022038803C213F48EC
:10369000FCF795FD3D48406B401C3C4948630020C9
:1036A000C0434DE78221E01CFEF792FD002805D0C3
:1036B0001520287001203880801E41E73348406B78
:1036C000401C32494863096AC9013C4A8818802273
:1036D000E11CFFF73FFB2D48006A401C2B490862A4
:1036E0000846006A496A884207D3062028700120EC
:1036F000388004202549086003E006202870012056
:103700003880002021494863012019E720780428E7
:1037100007D01E48406B401C1C4948630020C04332
:103720000EE70620287043206870022038800620AB
:103730001649086026E000E021E02078012805D144
:103740006078002802D1A078FF280BD015202870BF
:10375000012038800D48406B401C0C494863002014
:10376000C043EDE63C210948FCF729FD06202870FE
:10377000012038800020054908600220E0E6002092
:10378000C043DDE600BF0020DAE60000CC040020E4
:103790003439000825732C2046696C65206E616DF4
:1037A000653A0000256300000D0A00004669726D4D
:1037B00053697A653A2564200D0A000000800008EC
:1037C00008B52048006800283BD01E48806B401C8C
:1037D0001C4988630846806B03280AD90846406B59
:1037E000401C486315206946087001216846FFF7B0
:1037F00041FE1448406B052822DD3C211148FCF7AE
:10380000DEFC18216846017041700221FFF732FE8C
:1038100000BF00BF00BF00BF00BFBFF34F8F00BF9E
:1038200000BF00BF08480949C86000BF00BF00BF13
:10383000BFF34F8F00BF00BF00BF00BF00BFFDE759
:1038400000BF08BDCC0400200400FA0500ED00E034
:103850000000000000000000000000000000000068
:103860000000000000000000000000000000000058
:10387000010000000200000003000000040000003E
:10388000060000000700000008000000090000001A
:103890000000000000000000000000000000000028
:1038A000010000000200000003000000040000000E
:1038B00000093D0000127A000024F4004086510106
:1038C00000366E0100093D0000093D0000093D0081
:1038D000081C300000000004040400000800000080
:1038E000080000080000000800020406080A0C0096
:1038F000010203040506666C6173685F756E6C6F88
:10390000636B00666C6173685F6C6F636B00081CAF
:10391000300000000004040400000800000008005B
:1039200000080000000800020406080A0C0001025A
:1039300003040506796D6F64656D5F7061636B6587
:10394000745F616E616C797369730000C1814001BD
:10395000C0804101C0804100C1814001C080410060
:10396000C1814000C1814001C0804101C08041004F
:10397000C1814000C1814001C0804100C18140013E
:10398000C0804101C0804100C1814001C080410030
:10399000C1814000C1814001C0804100C18140011E
:1039A000C0804101C0804100C1814000C18140010F
:1039B000C0804101C0804100C1814001C080410000
:1039C000C1814000C1814001C0804101C0804100EF
:1039D000C1814000C1814001C0804100C1814001DE
:1039E000C0804101C0804100C1814000C1814001CF
:1039F000C0804101C0804100C1814001C0804100C0
:103A0000C1814000C1814001C0804100C1814001AD
:103A1000C0804101C0804100C1814001C08041009F
:103A2000C1814000C1814001C0804101C08041008E
:103A3000C1814000C1814001C0804100C18140017D
:103A4000C0804101C0804100C1814000C0C101C3AC
:103A50000302C2C60607C705C5C404CC0C0DCD0FB2
:103A6000CFCE0E0ACACB0BC90908C8D81819D91B62
:103A7000DBDA1A1EDEDF1FDD1D1CDC14D4D515D7E2
:103A80001716D6D21213D311D1D010F03031F13332
:103A9000F3F23236F6F737F53534F43CFCFD3DFFF2
:103AA0003F3EFEFA3A3BFB39F9F83828E8E929EBC2
:103AB0002B2AEAEE2E2FEF2DEDEC2CE42425E52722
:103AC000E7E62622E2E323E12120E0A06061A16392
:103AD000A3A26266A6A767A56564A46CACAD6DAF32
:103AE0006F6EAEAA6A6BAB69A9A86878B8B979BBE2
:103AF0007B7ABABE7E7FBF7DBDBC7CB47475B57762
:103B0000B7B67672B2B373B17170B05090915193F1
:103B100053529296565797559594549C5C5D9D5F71
:103B20009F9E5E5A9A9B5B99595898884849894B41
:103B30008B8A4A4E8E8F4F8D4D4C8C4484854587A1
:103B4000474686824243834181804000416E7469CA
:103B5000636F6C6C333A6F6B20205549443A2530C3
:103B600032782025303278202530327820253032C6
:103B70007820253032782025303278202530327870
:103B80002025303278202530327820253032780DCB
:103B90000A000000B43B00080000002024010000DF
:103BA00082220008D83C000824010020E40700001D
:103BB0009222000800000000000000000000000049
:103BC00000000000000000000000000000000000F5
:103BD00000000000000000000000000000000000E5
:103BE00000000000000000000000000000000000D5
:103BF00000000000000000000000000000000000C5
:103C000000000000000000000000000000000000B4
:103C100000000000000000000000000000000000A4
:103C20000000000000000000000000000000000094
:103C30000000000000000000000000000000000084
:103C40000000000000000000000000000000000074
:103C50000000000000000000000000000000000064
:103C60000000000000000000000000000000000054
:103C70000000000000127A000000000000000000B8
:103C80000000000000000000000000000000000034
:103C90000000000000000000000000000000000024
:103CA0000000000000000000000000000000000014
:103CB0000000000000000000FF0A50A55A3826FE50
:103CC00000000000000000000000000000000000F4
:083CD0000000000000000000EC
:04000005080000C12E
:00000001FF
